{
  "contractName": "ScratchToken",
  "abi": [
    {
      "inputs": [
        {
          "internalType": "string",
          "name": "_tokenName",
          "type": "string"
        },
        {
          "internalType": "uint8",
          "name": "_decimalUnits",
          "type": "uint8"
        },
        {
          "internalType": "string",
          "name": "_tokenSymbol",
          "type": "string"
        }
      ],
      "stateMutability": "nonpayable",
      "type": "constructor"
    },
    {
      "anonymous": false,
      "inputs": [
        {
          "indexed": true,
          "internalType": "address",
          "name": "_owner",
          "type": "address"
        },
        {
          "indexed": true,
          "internalType": "address",
          "name": "_spender",
          "type": "address"
        },
        {
          "indexed": false,
          "internalType": "uint256",
          "name": "_value",
          "type": "uint256"
        }
      ],
      "name": "Approval",
      "type": "event"
    },
    {
      "anonymous": false,
      "inputs": [
        {
          "indexed": true,
          "internalType": "address",
          "name": "_from",
          "type": "address"
        },
        {
          "indexed": true,
          "internalType": "address",
          "name": "_to",
          "type": "address"
        },
        {
          "indexed": false,
          "internalType": "uint256",
          "name": "_value",
          "type": "uint256"
        }
      ],
      "name": "Transfer",
      "type": "event"
    },
    {
      "inputs": [
        {
          "internalType": "address",
          "name": "",
          "type": "address"
        },
        {
          "internalType": "address",
          "name": "",
          "type": "address"
        }
      ],
      "name": "allowed",
      "outputs": [
        {
          "internalType": "uint256",
          "name": "",
          "type": "uint256"
        }
      ],
      "stateMutability": "view",
      "type": "function"
    },
    {
      "inputs": [
        {
          "internalType": "address",
          "name": "",
          "type": "address"
        }
      ],
      "name": "balances",
      "outputs": [
        {
          "internalType": "uint256",
          "name": "",
          "type": "uint256"
        }
      ],
      "stateMutability": "view",
      "type": "function"
    },
    {
      "inputs": [],
      "name": "decimals",
      "outputs": [
        {
          "internalType": "uint8",
          "name": "",
          "type": "uint8"
        }
      ],
      "stateMutability": "view",
      "type": "function"
    },
    {
      "inputs": [],
      "name": "name",
      "outputs": [
        {
          "internalType": "string",
          "name": "",
          "type": "string"
        }
      ],
      "stateMutability": "view",
      "type": "function"
    },
    {
      "inputs": [],
      "name": "scratch",
      "outputs": [
        {
          "internalType": "address",
          "name": "",
          "type": "address"
        }
      ],
      "stateMutability": "view",
      "type": "function"
    },
    {
      "inputs": [],
      "name": "symbol",
      "outputs": [
        {
          "internalType": "string",
          "name": "",
          "type": "string"
        }
      ],
      "stateMutability": "view",
      "type": "function"
    },
    {
      "inputs": [],
      "name": "tokenSale",
      "outputs": [
        {
          "internalType": "address",
          "name": "",
          "type": "address"
        }
      ],
      "stateMutability": "view",
      "type": "function"
    },
    {
      "inputs": [],
      "name": "totalSupply",
      "outputs": [
        {
          "internalType": "uint256",
          "name": "",
          "type": "uint256"
        }
      ],
      "stateMutability": "view",
      "type": "function"
    },
    {
      "inputs": [
        {
          "internalType": "address",
          "name": "receiver",
          "type": "address"
        },
        {
          "internalType": "uint256",
          "name": "amount",
          "type": "uint256"
        }
      ],
      "name": "mint",
      "outputs": [],
      "stateMutability": "nonpayable",
      "type": "function"
    },
    {
      "inputs": [],
      "name": "getTotalSupply",
      "outputs": [
        {
          "internalType": "uint256",
          "name": "supply",
          "type": "uint256"
        }
      ],
      "stateMutability": "view",
      "type": "function"
    },
    {
      "inputs": [],
      "name": "endSale",
      "outputs": [],
      "stateMutability": "nonpayable",
      "type": "function"
    },
    {
      "inputs": [
        {
          "internalType": "address",
          "name": "_to",
          "type": "address"
        },
        {
          "internalType": "uint256",
          "name": "_value",
          "type": "uint256"
        }
      ],
      "name": "transfer",
      "outputs": [
        {
          "internalType": "bool",
          "name": "success",
          "type": "bool"
        }
      ],
      "stateMutability": "nonpayable",
      "type": "function"
    },
    {
      "inputs": [
        {
          "internalType": "address",
          "name": "_from",
          "type": "address"
        },
        {
          "internalType": "address",
          "name": "_to",
          "type": "address"
        },
        {
          "internalType": "uint256",
          "name": "_value",
          "type": "uint256"
        }
      ],
      "name": "transferFrom",
      "outputs": [
        {
          "internalType": "bool",
          "name": "success",
          "type": "bool"
        }
      ],
      "stateMutability": "nonpayable",
      "type": "function"
    },
    {
      "inputs": [
        {
          "internalType": "address",
          "name": "_owner",
          "type": "address"
        }
      ],
      "name": "balanceOf",
      "outputs": [
        {
          "internalType": "uint256",
          "name": "balance",
          "type": "uint256"
        }
      ],
      "stateMutability": "view",
      "type": "function"
    },
    {
      "inputs": [
        {
          "internalType": "address",
          "name": "_spender",
          "type": "address"
        },
        {
          "internalType": "uint256",
          "name": "_value",
          "type": "uint256"
        }
      ],
      "name": "approve",
      "outputs": [
        {
          "internalType": "bool",
          "name": "success",
          "type": "bool"
        }
      ],
      "stateMutability": "nonpayable",
      "type": "function"
    },
    {
      "inputs": [
        {
          "internalType": "address",
          "name": "_owner",
          "type": "address"
        },
        {
          "internalType": "address",
          "name": "_spender",
          "type": "address"
        }
      ],
      "name": "allowance",
      "outputs": [
        {
          "internalType": "uint256",
          "name": "remaining",
          "type": "uint256"
        }
      ],
      "stateMutability": "view",
      "type": "function"
    }
  ],
  "bytecode": "0x60806040523480156200001157600080fd5b506040516200604438038062006044833981810160405260608110156200003757600080fd5b81019080805160405193929190846401000000008211156200005857600080fd5b838201915060208201858111156200006f57600080fd5b82518660018202830111640100000000821117156200008d57600080fd5b8083526020830192505050908051906020019080838360005b83811015620000c3578082015181840152602081019050620000a6565b50505050905090810190601f168015620000f15780820380516001836020036101000a031916815260200191505b5060405260200180519060200190929190805160405193929190846401000000008211156200011f57600080fd5b838201915060208201858111156200013657600080fd5b82518660018202830111640100000000821117156200015457600080fd5b8083526020830192505050908051906020019080838360005b838110156200018a5780820151818401526020810190506200016d565b50505050905090810190601f168015620001b85780820380516001836020036101000a031916815260200191505b506040525050506934f086f3b33b684000006002819055508260069080519060200190620001e8929190620003a3565b5081600760006101000a81548160ff021916908360ff16021790555080600890805190602001906200021c929190620003a3565b506040516200022b906200042a565b604051809103906000f08015801562000248573d6000803e3d6000fd5b50600360006101000a81548173ffffffffffffffffffffffffffffffffffffffff021916908373ffffffffffffffffffffffffffffffffffffffff16021790555069324ae69ab71209700000600080600360009054906101000a900473ffffffffffffffffffffffffffffffffffffffff1673ffffffffffffffffffffffffffffffffffffffff1673ffffffffffffffffffffffffffffffffffffffff168152602001908152602001600020819055506902a5a058fc295ed000006000803373ffffffffffffffffffffffffffffffffffffffff1673ffffffffffffffffffffffffffffffffffffffff1681526020019081526020016000208190555073a36085f69e2889c224210f603d836748e7dc0088600560006101000a81548173ffffffffffffffffffffffffffffffffffffffff021916908373ffffffffffffffffffffffffffffffffffffffff16021790555050505062000460565b828054600181600116156101000203166002900490600052602060002090601f016020900481019282601f10620003e657805160ff191683800117855562000417565b8280016001018555821562000417579182015b8281111562000416578251825591602001919060010190620003f9565b5b50905062000426919062000438565b5090565b610c6e80620053d683390190565b6200045d91905b80821115620004595760008160009055506001016200043f565b5090565b90565b614f6680620004706000396000f3fe60806040523480156200001157600080fd5b5060043610620001185760003560e01c806340c10f1911620000a5578063a9059cbb116200006f578063a9059cbb146200053f578063b942031014620005a8578063c4e41b2214620005f4578063dd62ed3e14620006145762000118565b806340c10f1914620003905780635c65816514620003e157806370a08231146200045c57806395d89b4114620004b75762000118565b806327e235e311620000e757806327e235e314620002b7578063313ce5671462000312578063380d831b14620003385780633e6c22d414620003445762000118565b806306fdde03146200011d578063095ea7b314620001a557806318160ddd146200020e57806323b872dd146200022e575b600080fd5b620001276200068f565b6040518080602001828103825283818151815260200191508051906020019080838360005b83811015620001695780820151818401526020810190506200014c565b50505050905090810190601f168015620001975780820380516001836020036101000a031916815260200191505b509250505060405180910390f35b620001f460048036036040811015620001bd57600080fd5b81019080803573ffffffffffffffffffffffffffffffffffffffff1690602001909291908035906020019092919050505062000731565b604051808215151515815260200191505060405180910390f35b6200021862000823565b6040518082815260200191505060405180910390f35b6200029d600480360360608110156200024657600080fd5b81019080803573ffffffffffffffffffffffffffffffffffffffff169060200190929190803573ffffffffffffffffffffffffffffffffffffffff1690602001909291908035906020019092919050505062000829565b604051808215151515815260200191505060405180910390f35b620002fc60048036036020811015620002cf57600080fd5b81019080803573ffffffffffffffffffffffffffffffffffffffff16906020019092919050505062000ce9565b6040518082815260200191505060405180910390f35b6200031c62000d01565b604051808260ff1660ff16815260200191505060405180910390f35b6200034262000d14565b005b6200034e620011f7565b604051808273ffffffffffffffffffffffffffffffffffffffff1673ffffffffffffffffffffffffffffffffffffffff16815260200191505060405180910390f35b620003df60048036036040811015620003a857600080fd5b81019080803573ffffffffffffffffffffffffffffffffffffffff169060200190929190803590602001909291905050506200121d565b005b6200044660048036036040811015620003f957600080fd5b81019080803573ffffffffffffffffffffffffffffffffffffffff169060200190929190803573ffffffffffffffffffffffffffffffffffffffff16906020019092919050505062001341565b6040518082815260200191505060405180910390f35b620004a1600480360360208110156200047457600080fd5b81019080803573ffffffffffffffffffffffffffffffffffffffff16906020019092919050505062001366565b6040518082815260200191505060405180910390f35b620004c1620013ae565b6040518080602001828103825283818151815260200191508051906020019080838360005b8381101562000503578082015181840152602081019050620004e6565b50505050905090810190601f168015620005315780820380516001836020036101000a031916815260200191505b509250505060405180910390f35b6200058e600480360360408110156200055757600080fd5b81019080803573ffffffffffffffffffffffffffffffffffffffff1690602001909291908035906020019092919050505062001450565b604051808215151515815260200191505060405180910390f35b620005b2620017cd565b604051808273ffffffffffffffffffffffffffffffffffffffff1673ffffffffffffffffffffffffffffffffffffffff16815260200191505060405180910390f35b620005fe620017f3565b6040518082815260200191505060405180910390f35b62000679600480360360408110156200062c57600080fd5b81019080803573ffffffffffffffffffffffffffffffffffffffff169060200190929190803573ffffffffffffffffffffffffffffffffffffffff169060200190929190505050620017fd565b6040518082815260200191505060405180910390f35b60068054600181600116156101000203166002900480601f016020809104026020016040519081016040528092919081815260200182805460018160011615610100020316600290048015620007295780601f10620006fd5761010080835404028352916020019162000729565b820191906000526020600020905b8154815290600101906020018083116200070b57829003601f168201915b505050505081565b600081600160003373ffffffffffffffffffffffffffffffffffffffff1673ffffffffffffffffffffffffffffffffffffffff16815260200190815260200160002060008573ffffffffffffffffffffffffffffffffffffffff1673ffffffffffffffffffffffffffffffffffffffff168152602001908152602001600020819055508273ffffffffffffffffffffffffffffffffffffffff163373ffffffffffffffffffffffffffffffffffffffff167f8c5be1e5ebec7d5bd14f71427d1e84f3dd0314c0f7b2291e5b200ac8c7c3b925846040518082815260200191505060405180910390a36001905092915050565b60025481565b600080600160008673ffffffffffffffffffffffffffffffffffffffff1673ffffffffffffffffffffffffffffffffffffffff16815260200190815260200160002060003373ffffffffffffffffffffffffffffffffffffffff1673ffffffffffffffffffffffffffffffffffffffff168152602001908152602001600020549050826000808773ffffffffffffffffffffffffffffffffffffffff1673ffffffffffffffffffffffffffffffffffffffff1681526020019081526020016000205410158015620008fa5750828110155b62000951576040517f08c379a000000000000000000000000000000000000000000000000000000000815260040180806020018281038252603981526020018062004ef86039913960400191505060405180910390fd5b600460009054906101000a900473ffffffffffffffffffffffffffffffffffffffff1673ffffffffffffffffffffffffffffffffffffffff16639f8743f76040518163ffffffff1660e01b815260040160206040518083038186803b158015620009ba57600080fd5b505afa158015620009cf573d6000803e3d6000fd5b505050506040513d6020811015620009e657600080fd5b8101908080519060200190929190505050600460009054906101000a900473ffffffffffffffffffffffffffffffffffffffff1673ffffffffffffffffffffffffffffffffffffffff166392899fcc866040518263ffffffff1660e01b8152600401808273ffffffffffffffffffffffffffffffffffffffff1673ffffffffffffffffffffffffffffffffffffffff16815260200191505060206040518083038186803b15801562000a9757600080fd5b505afa15801562000aac573d6000803e3d6000fd5b505050506040513d602081101562000ac357600080fd5b81019080805190602001909291905050501462000b2c576040517f08c379a000000000000000000000000000000000000000000000000000000000815260040180806020018281038252602881526020018062004ed06028913960400191505060405180910390fd5b826000808673ffffffffffffffffffffffffffffffffffffffff1673ffffffffffffffffffffffffffffffffffffffff16815260200190815260200160002060008282540192505081905550826000808773ffffffffffffffffffffffffffffffffffffffff1673ffffffffffffffffffffffffffffffffffffffff168152602001908152602001600020600082825403925050819055507fffffffffffffffffffffffffffffffffffffffffffffffffffffffffffffffff81101562000c785782600160008773ffffffffffffffffffffffffffffffffffffffff1673ffffffffffffffffffffffffffffffffffffffff16815260200190815260200160002060003373ffffffffffffffffffffffffffffffffffffffff1673ffffffffffffffffffffffffffffffffffffffff168152602001908152602001600020600082825403925050819055505b8373ffffffffffffffffffffffffffffffffffffffff168573ffffffffffffffffffffffffffffffffffffffff167fddf252ad1be2c89b69c2b068fc378daa952ba7f163c4a11628f55a4df523b3ef856040518082815260200191505060405180910390a360019150509392505050565b60006020528060005260406000206000915090505481565b600760009054906101000a900460ff1681565b600360009054906101000a900473ffffffffffffffffffffffffffffffffffffffff1673ffffffffffffffffffffffffffffffffffffffff166323b809956040518163ffffffff1660e01b815260040160206040518083038186803b15801562000d7d57600080fd5b505afa15801562000d92573d6000803e3d6000fd5b505050506040513d602081101562000da957600080fd5b8101908080519060200190929190505050801562000e155750600073ffffffffffffffffffffffffffffffffffffffff16600460009054906101000a900473ffffffffffffffffffffffffffffffffffffffff1673ffffffffffffffffffffffffffffffffffffffff16145b62000e88576040517f08c379a000000000000000000000000000000000000000000000000000000000815260040180806020018281038252601f8152602001807f54686520746f6b656e2073616c65206973206e6f74206f766572207965742e0081525060200191505060405180910390fd5b600560009054906101000a900473ffffffffffffffffffffffffffffffffffffffff1673ffffffffffffffffffffffffffffffffffffffff166370a08231306040518263ffffffff1660e01b8152600401808273ffffffffffffffffffffffffffffffffffffffff1673ffffffffffffffffffffffffffffffffffffffff16815260200191505060206040518083038186803b15801562000f2857600080fd5b505afa15801562000f3d573d6000803e3d6000fd5b505050506040513d602081101562000f5457600080fd5b81019080805190602001909291905050503060405162000f749062001884565b808381526020018273ffffffffffffffffffffffffffffffffffffffff1673ffffffffffffffffffffffffffffffffffffffff16815260200192505050604051809103906000f08015801562000fce573d6000803e3d6000fd5b50600460006101000a81548173ffffffffffffffffffffffffffffffffffffffff021916908373ffffffffffffffffffffffffffffffffffffffff160217905550600560009054906101000a900473ffffffffffffffffffffffffffffffffffffffff1673ffffffffffffffffffffffffffffffffffffffff1663a9059cbb600460009054906101000a900473ffffffffffffffffffffffffffffffffffffffff16600560009054906101000a900473ffffffffffffffffffffffffffffffffffffffff1673ffffffffffffffffffffffffffffffffffffffff166370a08231306040518263ffffffff1660e01b8152600401808273ffffffffffffffffffffffffffffffffffffffff1673ffffffffffffffffffffffffffffffffffffffff16815260200191505060206040518083038186803b1580156200111057600080fd5b505afa15801562001125573d6000803e3d6000fd5b505050506040513d60208110156200113c57600080fd5b81019080805190602001909291905050506040518363ffffffff1660e01b8152600401808373ffffffffffffffffffffffffffffffffffffffff1673ffffffffffffffffffffffffffffffffffffffff16815260200182815260200192505050602060405180830381600087803b158015620011b757600080fd5b505af1158015620011cc573d6000803e3d6000fd5b505050506040513d6020811015620011e357600080fd5b810190808051906020019092919050505050565b600460009054906101000a900473ffffffffffffffffffffffffffffffffffffffff1681565b600460009054906101000a900473ffffffffffffffffffffffffffffffffffffffff1673ffffffffffffffffffffffffffffffffffffffff163373ffffffffffffffffffffffffffffffffffffffff1614620012e1576040517f08c379a00000000000000000000000000000000000000000000000000000000081526004018080602001828103825260148152602001807f496e76616c6964206d696e7420617474656d707400000000000000000000000081525060200191505060405180910390fd5b80600260008282540192505081905550806000808473ffffffffffffffffffffffffffffffffffffffff1673ffffffffffffffffffffffffffffffffffffffff168152602001908152602001600020600082825401925050819055505050565b6001602052816000526040600020602052806000526040600020600091509150505481565b60008060008373ffffffffffffffffffffffffffffffffffffffff1673ffffffffffffffffffffffffffffffffffffffff168152602001908152602001600020549050919050565b60088054600181600116156101000203166002900480601f016020809104026020016040519081016040528092919081815260200182805460018160011615610100020316600290048015620014485780601f106200141c5761010080835404028352916020019162001448565b820191906000526020600020905b8154815290600101906020018083116200142a57829003601f168201915b505050505081565b6000816000803373ffffffffffffffffffffffffffffffffffffffff1673ffffffffffffffffffffffffffffffffffffffff168152602001908152602001600020541015620014eb576040517f08c379a000000000000000000000000000000000000000000000000000000000815260040180806020018281038252602f81526020018062004ea1602f913960400191505060405180910390fd5b600460009054906101000a900473ffffffffffffffffffffffffffffffffffffffff1673ffffffffffffffffffffffffffffffffffffffff16639f8743f76040518163ffffffff1660e01b815260040160206040518083038186803b1580156200155457600080fd5b505afa15801562001569573d6000803e3d6000fd5b505050506040513d60208110156200158057600080fd5b8101908080519060200190929190505050600460009054906101000a900473ffffffffffffffffffffffffffffffffffffffff1673ffffffffffffffffffffffffffffffffffffffff166392899fcc856040518263ffffffff1660e01b8152600401808273ffffffffffffffffffffffffffffffffffffffff1673ffffffffffffffffffffffffffffffffffffffff16815260200191505060206040518083038186803b1580156200163157600080fd5b505afa15801562001646573d6000803e3d6000fd5b505050506040513d60208110156200165d57600080fd5b810190808051906020019092919050505014620016c6576040517f08c379a000000000000000000000000000000000000000000000000000000000815260040180806020018281038252602881526020018062004ed06028913960400191505060405180910390fd5b816000803373ffffffffffffffffffffffffffffffffffffffff1673ffffffffffffffffffffffffffffffffffffffff16815260200190815260200160002060008282540392505081905550816000808573ffffffffffffffffffffffffffffffffffffffff1673ffffffffffffffffffffffffffffffffffffffff168152602001908152602001600020600082825401925050819055508273ffffffffffffffffffffffffffffffffffffffff163373ffffffffffffffffffffffffffffffffffffffff167fddf252ad1be2c89b69c2b068fc378daa952ba7f163c4a11628f55a4df523b3ef846040518082815260200191505060405180910390a36001905092915050565b600360009054906101000a900473ffffffffffffffffffffffffffffffffffffffff1681565b6000600254905090565b6000600160008473ffffffffffffffffffffffffffffffffffffffff1673ffffffffffffffffffffffffffffffffffffffff16815260200190815260200160002060008373ffffffffffffffffffffffffffffffffffffffff1673ffffffffffffffffffffffffffffffffffffffff16815260200190815260200160002054905092915050565b61360e80620018938339019056fe60806040526040516200360e3803806200360e8339818101604052604081101561002857600080fd5b81019080805190602001909291908051906020019092919050505073f490ac64087d59381faf8bf49da299c073aac15273a36085f69e2889c224210f603d836748e7dc008881600160006101000a81548173ffffffffffffffffffffffffffffffffffffffff021916908373ffffffffffffffffffffffffffffffffffffffff160217905550806000806101000a81548173ffffffffffffffffffffffffffffffffffffffff021916908373ffffffffffffffffffffffffffffffffffffffff16021790555050507f6c3699283bda56ad74f6b855546325b68d482e983852a7a82979cc4807b641f460001b60038190555067016345785d8a000060048190555081604051610136906101fc565b80828152602001915050604051809103906000f08015801561015c573d6000803e3d6000fd5b50600860006101000a81548173ffffffffffffffffffffffffffffffffffffffff021916908373ffffffffffffffffffffffffffffffffffffffff1602179055506001600a8190555080600960006101000a81548173ffffffffffffffffffffffffffffffffffffffff021916908373ffffffffffffffffffffffffffffffffffffffff160217905550670de0b6b3a7640000600b81905550505061020a565b6109fb8062002c1383390190565b6129f9806200021a6000396000f3fe60806040523480156200001157600080fd5b5060043610620001185760003560e01c806394985ddd11620000a5578063b87dadd8116200006f578063b87dadd814620003a8578063c321f6d81462000403578063c5b1d9aa146200044f578063dc6cfe10146200045b5762000118565b806394985ddd14620002d75780639e317f1214620003125780639f8743f71462000357578063af6434fb14620003775762000118565b80637ac5d8a911620000e75780637ac5d8a9146200021c5780638c38858b146200023c5780638c7c6fd6146200025c57806392899fcc146200027c5762000118565b8063084c78f8146200011d5780631b4948fd146200016957806321df0da714620001c457806352f107c21462000210575b600080fd5b62000127620004b4565b604051808273ffffffffffffffffffffffffffffffffffffffff1673ffffffffffffffffffffffffffffffffffffffff16815260200191505060405180910390f35b620001ae600480360360208110156200018157600080fd5b81019080803573ffffffffffffffffffffffffffffffffffffffff169060200190929190505050620004de565b6040518082815260200191505060405180910390f35b620001ce620004f6565b604051808273ffffffffffffffffffffffffffffffffffffffff1673ffffffffffffffffffffffffffffffffffffffff16815260200191505060405180910390f35b6200021a62000520565b005b6200022662000998565b6040518082815260200191505060405180910390f35b620002466200099e565b6040518082815260200191505060405180910390f35b62000266620009a4565b6040518082815260200191505060405180910390f35b620002c1600480360360208110156200029457600080fd5b81019080803573ffffffffffffffffffffffffffffffffffffffff16906020019092919050505062000abb565b6040518082815260200191505060405180910390f35b6200031060048036036040811015620002ef57600080fd5b81019080803590602001909291908035906020019092919050505062000b04565b005b62000341600480360360208110156200032a57600080fd5b810190808035906020019092919050505062000bd8565b6040518082815260200191505060405180910390f35b6200036162000bf0565b6040518082815260200191505060405180910390f35b620003a6600480360360208110156200038f57600080fd5b810190808035906020019092919050505062000bfa565b005b620003ed60048036036020811015620003c057600080fd5b81019080803573ffffffffffffffffffffffffffffffffffffffff16906020019092919050505062000fbf565b6040518082815260200191505060405180910390f35b62000432600480360360208110156200041b57600080fd5b8101908080359060200190929190505050620010a4565b604051808381526020018281526020019250505060405180910390f35b62000459620010c8565b005b6200049e600480360360608110156200047357600080fd5b8101908080359060200190929190803590602001909291908035906020019092919050505062001648565b6040518082815260200191505060405180910390f35b6000600860009054906101000a900473ffffffffffffffffffffffffffffffffffffffff16905090565b60066020528060005260406000206000915090505481565b6000600960009054906101000a900473ffffffffffffffffffffffffffffffffffffffff16905090565b600a54600660003373ffffffffffffffffffffffffffffffffffffffff1673ffffffffffffffffffffffffffffffffffffffff16815260200190815260200160002054108015620005b057506000600660003373ffffffffffffffffffffffffffffffffffffffff1673ffffffffffffffffffffffffffffffffffffffff16815260200190815260200160002054115b62000623576040517f08c379a000000000000000000000000000000000000000000000000000000000815260040180806020018281038252601d8152602001807f496e76616c6964206469766964656e64207061727469636970616e742e00000081525060200191505060405180910390fd5b6000600660003373ffffffffffffffffffffffffffffffffffffffff1673ffffffffffffffffffffffffffffffffffffffff168152602001908152602001600020549050600a54600660003373ffffffffffffffffffffffffffffffffffffffff1673ffffffffffffffffffffffffffffffffffffffff168152602001908152602001600020819055505b600a5481101562000995576000611770612710600760008581526020019081526020016000206000015481620006e057fe5b040290506000670de0b6b3a76400006007600085815260200190815260200160002060010154816200070e57fe5b04600960009054906101000a900473ffffffffffffffffffffffffffffffffffffffff1673ffffffffffffffffffffffffffffffffffffffff166370a08231336040518263ffffffff1660e01b8152600401808273ffffffffffffffffffffffffffffffffffffffff1673ffffffffffffffffffffffffffffffffffffffff16815260200191505060206040518083038186803b158015620007af57600080fd5b505afa158015620007c4573d6000803e3d6000fd5b505050506040513d6020811015620007db57600080fd5b810190808051906020019092919050505081620007f457fe5b0490506000633b9aca0083816200080757fe5b04633b9aca0083816200081657fe5b040290506000809054906101000a900473ffffffffffffffffffffffffffffffffffffffff1673ffffffffffffffffffffffffffffffffffffffff1663a9059cbb33836040518363ffffffff1660e01b8152600401808373ffffffffffffffffffffffffffffffffffffffff1673ffffffffffffffffffffffffffffffffffffffff16815260200182815260200192505050602060405180830381600087803b158015620008c357600080fd5b505af1158015620008d8573d6000803e3d6000fd5b505050506040513d6020811015620008ef57600080fd5b8101908080519060200190929190505050507ffb78800bfcff6977658023003598b31f55709953ccbe3e973eb9608a04237c123385858585604051808673ffffffffffffffffffffffffffffffffffffffff1673ffffffffffffffffffffffffffffffffffffffff1681526020018581526020018481526020018381526020018281526020019550505050505060405180910390a15050508080600101915050620006ae565b50565b600a5481565b600b5481565b60008060009054906101000a900473ffffffffffffffffffffffffffffffffffffffff1673ffffffffffffffffffffffffffffffffffffffff1663dd62ed3e33306040518363ffffffff1660e01b8152600401808373ffffffffffffffffffffffffffffffffffffffff1673ffffffffffffffffffffffffffffffffffffffff1681526020018273ffffffffffffffffffffffffffffffffffffffff1673ffffffffffffffffffffffffffffffffffffffff1681526020019250505060206040518083038186803b15801562000a7957600080fd5b505afa15801562000a8e573d6000803e3d6000fd5b505050506040513d602081101562000aa557600080fd5b8101908080519060200190929190505050905090565b6000600660008373ffffffffffffffffffffffffffffffffffffffff1673ffffffffffffffffffffffffffffffffffffffff168152602001908152602001600020549050919050565b600160009054906101000a900473ffffffffffffffffffffffffffffffffffffffff1673ffffffffffffffffffffffffffffffffffffffff163373ffffffffffffffffffffffffffffffffffffffff161462000bc8576040517f08c379a000000000000000000000000000000000000000000000000000000000815260040180806020018281038252601f8152602001807f4f6e6c7920565246436f6f7264696e61746f722063616e2066756c66696c6c0081525060200191505060405180910390fd5b62000bd4828262001865565b5050565b60026020528060005260406000206000915090505481565b6000600a54905090565b6000600454600860009054906101000a900473ffffffffffffffffffffffffffffffffffffffff1673ffffffffffffffffffffffffffffffffffffffff1663d79d63be6040518163ffffffff1660e01b815260040160206040518083038186803b15801562000c6857600080fd5b505afa15801562000c7d573d6000803e3d6000fd5b505050506040513d602081101562000c9457600080fd5b8101908080519060200190929190505050019050806000809054906101000a900473ffffffffffffffffffffffffffffffffffffffff1673ffffffffffffffffffffffffffffffffffffffff1663dd62ed3e33306040518363ffffffff1660e01b8152600401808373ffffffffffffffffffffffffffffffffffffffff1673ffffffffffffffffffffffffffffffffffffffff1681526020018273ffffffffffffffffffffffffffffffffffffffff1673ffffffffffffffffffffffffffffffffffffffff1681526020019250505060206040518083038186803b15801562000d7c57600080fd5b505afa15801562000d91573d6000803e3d6000fd5b505050506040513d602081101562000da857600080fd5b8101908080519060200190929190505050101562000e12576040517f08c379a000000000000000000000000000000000000000000000000000000000815260040180806020018281038252602c81526020018062002998602c913960400191505060405180910390fd5b6000809054906101000a900473ffffffffffffffffffffffffffffffffffffffff1673ffffffffffffffffffffffffffffffffffffffff166323b872dd3330846040518463ffffffff1660e01b8152600401808473ffffffffffffffffffffffffffffffffffffffff1673ffffffffffffffffffffffffffffffffffffffff1681526020018373ffffffffffffffffffffffffffffffffffffffff1673ffffffffffffffffffffffffffffffffffffffff1681526020018281526020019350505050602060405180830381600087803b15801562000eef57600080fd5b505af115801562000f04573d6000803e3d6000fd5b505050506040513d602081101562000f1b57600080fd5b81019080805190602001909291905050501562000fbb57600a54600660003373ffffffffffffffffffffffffffffffffffffffff1673ffffffffffffffffffffffffffffffffffffffff168152602001908152602001600020819055507fec8c2237ef5a149555e0d3b8af26b48c39e3862ad4697de99fe6dd3601d49db762000fa5833362001c55565b6040518082815260200191505060405180910390a15b5050565b60008060009054906101000a900473ffffffffffffffffffffffffffffffffffffffff1673ffffffffffffffffffffffffffffffffffffffff166370a08231836040518263ffffffff1660e01b8152600401808273ffffffffffffffffffffffffffffffffffffffff1673ffffffffffffffffffffffffffffffffffffffff16815260200191505060206040518083038186803b1580156200106057600080fd5b505afa15801562001075573d6000803e3d6000fd5b505050506040513d60208110156200108c57600080fd5b81019080805190602001909291905050509050919050565b60076020528060005260406000206000915090508060000154908060010154905082565b600860009054906101000a900473ffffffffffffffffffffffffffffffffffffffff1673ffffffffffffffffffffffffffffffffffffffff16632de1da6b6040518163ffffffff1660e01b815260040160206040518083038186803b1580156200113157600080fd5b505afa15801562001146573d6000803e3d6000fd5b505050506040513d60208110156200115d57600080fd5b8101908080519060200190929190505050620011e1576040517f08c379a000000000000000000000000000000000000000000000000000000000815260040180806020018281038252601a8152602001807f54686520726f756e64206973206e6f74206f766572207965742e00000000000081525060200191505060405180910390fd5b6000600960009054906101000a900473ffffffffffffffffffffffffffffffffffffffff1673ffffffffffffffffffffffffffffffffffffffff166370a08231336040518263ffffffff1660e01b8152600401808273ffffffffffffffffffffffffffffffffffffffff1673ffffffffffffffffffffffffffffffffffffffff16815260200191505060206040518083038186803b1580156200128357600080fd5b505afa15801562001298573d6000803e3d6000fd5b505050506040513d6020811015620012af57600080fd5b81019080805190602001909291905050501162001334576040517f08c379a000000000000000000000000000000000000000000000000000000000815260040180806020018281038252601a8152602001807f596f7520617265206e6f742061207061727469636970616e742e00000000000081525060200191505060405180910390fd5b60405180604001604052806000809054906101000a900473ffffffffffffffffffffffffffffffffffffffff1673ffffffffffffffffffffffffffffffffffffffff166370a08231306040518263ffffffff1660e01b8152600401808273ffffffffffffffffffffffffffffffffffffffff1673ffffffffffffffffffffffffffffffffffffffff16815260200191505060206040518083038186803b158015620013de57600080fd5b505afa158015620013f3573d6000803e3d6000fd5b505050506040513d60208110156200140a57600080fd5b81019080805190602001909291905050508152602001600960009054906101000a900473ffffffffffffffffffffffffffffffffffffffff1673ffffffffffffffffffffffffffffffffffffffff1663c4e41b226040518163ffffffff1660e01b815260040160206040518083038186803b1580156200148957600080fd5b505afa1580156200149e573d6000803e3d6000fd5b505050506040513d6020811015620014b557600080fd5b810190808051906020019092919050505081525060076000600a5481526020019081526020016000206000820151816000015560208201518160010155905050610b5061271060076000600a54815260200190815260200160002060000154816200151c57fe5b04026040516200152c9062001f3b565b80828152602001915050604051809103906000f08015801562001553573d6000803e3d6000fd5b50600860006101000a81548173ffffffffffffffffffffffffffffffffffffffff021916908373ffffffffffffffffffffffffffffffffffffffff16021790555060506064600b5481620015a357fe5b0402600b81905550600a600081548092919060010191905055507fb5d8636ab45e6cac7a4a61cb7c77f77f61a454d73aa2e6139ff8dcaf463537e5600760006001600a5403815260200190815260200160002060000154600760006001600a5403815260200190815260200160002060010154600b54600a546040518085815260200184815260200183815260200182815260200194505050505060405180910390a1565b60008060009054906101000a900473ffffffffffffffffffffffffffffffffffffffff1673ffffffffffffffffffffffffffffffffffffffff16634000aea0600160009054906101000a900473ffffffffffffffffffffffffffffffffffffffff1685878660405160200180838152602001828152602001925050506040516020818303038152906040526040518463ffffffff1660e01b8152600401808473ffffffffffffffffffffffffffffffffffffffff1673ffffffffffffffffffffffffffffffffffffffff16815260200183815260200180602001828103825283818151815260200191508051906020019080838360005b838110156200175c5780820151818401526020810190506200173f565b50505050905090810190601f1680156200178a5780820380516001836020036101000a031916815260200191505b50945050505050602060405180830381600087803b158015620017ac57600080fd5b505af1158015620017c1573d6000803e3d6000fd5b505050506040513d6020811015620017d857600080fd5b81019080805190602001909291905050505060006200180d858430600260008a81526020019081526020016000205462001dff565b9050620018386001600260008881526020019081526020016000205462001e7990919063ffffffff16565b60026000878152602001908152602001600020819055506200185b858262001f02565b9150509392505050565b600160009054906101000a900473ffffffffffffffffffffffffffffffffffffffff1673ffffffffffffffffffffffffffffffffffffffff163373ffffffffffffffffffffffffffffffffffffffff16146200190d576040517f08c379a0000000000000000000000000000000000000000000000000000000008152600401808060200182810382526028815260200180620029456028913960400191505060405180910390fd5b6000600860009054906101000a900473ffffffffffffffffffffffffffffffffffffffff1673ffffffffffffffffffffffffffffffffffffffff166394ffd9216005600086815260200190815260200160002060009054906101000a900473ffffffffffffffffffffffffffffffffffffffff1685856040518463ffffffff1660e01b8152600401808473ffffffffffffffffffffffffffffffffffffffff1673ffffffffffffffffffffffffffffffffffffffff1681526020018381526020018281526020019350505050602060405180830381600087803b158015620019f457600080fd5b505af115801562001a09573d6000803e3d6000fd5b505050506040513d602081101562001a2057600080fd5b81019080805190602001909291905050509050600081111562001b58576000809054906101000a900473ffffffffffffffffffffffffffffffffffffffff1673ffffffffffffffffffffffffffffffffffffffff1663a9059cbb6005600086815260200190815260200160002060009054906101000a900473ffffffffffffffffffffffffffffffffffffffff16836040518363ffffffff1660e01b8152600401808373ffffffffffffffffffffffffffffffffffffffff1673ffffffffffffffffffffffffffffffffffffffff16815260200182815260200192505050602060405180830381600087803b15801562001b1957600080fd5b505af115801562001b2e573d6000803e3d6000fd5b505050506040513d602081101562001b4557600080fd5b8101908080519060200190929190505050505b600960009054906101000a900473ffffffffffffffffffffffffffffffffffffffff1673ffffffffffffffffffffffffffffffffffffffff166340c10f196005600086815260200190815260200160002060009054906101000a900473ffffffffffffffffffffffffffffffffffffffff16600b546040518363ffffffff1660e01b8152600401808373ffffffffffffffffffffffffffffffffffffffff1673ffffffffffffffffffffffffffffffffffffffff16815260200182815260200192505050600060405180830381600087803b15801562001c3757600080fd5b505af115801562001c4c573d6000803e3d6000fd5b50505050505050565b60006004546000809054906101000a900473ffffffffffffffffffffffffffffffffffffffff1673ffffffffffffffffffffffffffffffffffffffff166370a08231306040518263ffffffff1660e01b8152600401808273ffffffffffffffffffffffffffffffffffffffff1673ffffffffffffffffffffffffffffffffffffffff16815260200191505060206040518083038186803b15801562001cf957600080fd5b505afa15801562001d0e573d6000803e3d6000fd5b505050506040513d602081101562001d2557600080fd5b81019080805190602001909291905050501162001d8e576040517f08c379a000000000000000000000000000000000000000000000000000000000815260040180806020018281038252602b8152602001806200296d602b913960400191505060405180910390fd5b600062001da16003546004548662001648565b9050826005600083815260200190815260200160002060006101000a81548173ffffffffffffffffffffffffffffffffffffffff021916908373ffffffffffffffffffffffffffffffffffffffff1602179055508091505092915050565b600084848484604051602001808581526020018481526020018373ffffffffffffffffffffffffffffffffffffffff1673ffffffffffffffffffffffffffffffffffffffff1681526020018281526020019450505050506040516020818303038152906040528051906020012060001c9050949350505050565b60008082840190508381101562001ef8576040517f08c379a000000000000000000000000000000000000000000000000000000000815260040180806020018281038252601b8152602001807f536166654d6174683a206164646974696f6e206f766572666c6f77000000000081525060200191505060405180910390fd5b8091505092915050565b60008282604051602001808381526020018281526020019250505060405160208183030381529060405280519060200120905092915050565b6109fb8062001f4a8339019056fe60806040526040518061010001604052806203030c62ffffff16815260200162038b9262ffffff1681526020016203baa462ffffff1681526020016203ca1262ffffff1681526020016203d00262ffffff1681526020016203d06662ffffff1681526020016203d08e62ffffff1681526020016203d09062ffffff16815250600490600861008e9291906103a4565b5034801561009b57600080fd5b506040516109fb3803806109fb833981810160405260208110156100be57600080fd5b8101908080519060200190929190505050336000806101000a81548173ffffffffffffffffffffffffffffffffffffffff021916908373ffffffffffffffffffffffffffffffffffffffff1602179055506208ca0043016001819055506002619ab090806001815401808255809150506001900390600052602060002001600090919091909150556002612ee090806001815401808255809150506001900390600052602060002001600090919091909150556002610fa0908060018154018082558091505060019003906000526020600020016000909190919091505560026105dc9080600181540180825580915050600190039060005260206000200160009091909190915055600260789080600181540180825580915050600190039060005260206000200160009091909190915055600260289080600181540180825580915050600190039060005260206000200160009091909190915055600280908060018154018082558091505060019003906000526020600020016000909190919091505562011ad0818161025057fe5b04600581905550600360026005548161026557fe5b04908060018154018082558091505060019003906000526020600020016000909190919091505560036005549080600181540180825580915050600190039060005260206000200160009091909190915055600360055460020290806001815401808255809150506001900390600052602060002001600090919091909150556003600554600a0290806001815401808255809150506001900390600052602060002001600090919091909150556003600554601e0290806001815401808255809150506001900390600052602060002001600090919091909150556003600554606402908060018154018082558091505060019003906000526020600020016000909190919091505560036005546113880290806001815401808255809150506001900390600052602060002001600090919091909150555061041d565b8280548282559060005260206000209081019282156103e7579160200282015b828111156103e6578251829062ffffff169055916020019190600101906103c4565b5b5090506103f491906103f8565b5090565b61041a91905b808211156104165760008160009055506001016103fe565b5090565b90565b6105cf8061042c6000396000f3fe608060405234801561001057600080fd5b506004361061004c5760003560e01c80632de1da6b1461005157806394ffd92114610073578063d79d63be146100df578063ff8de5ec146100fd575b600080fd5b6100596101a4565b604051808215151515815260200191505060405180910390f35b6100c96004803603606081101561008957600080fd5b81019080803573ffffffffffffffffffffffffffffffffffffffff1690602001909291908035906020019092919080359060200190929190505050610209565b6040518082815260200191505060405180910390f35b6100e76104b1565b6040518082815260200191505060405180910390f35b6101056104bb565b604051808060200180602001838103835285818151815260200191508051906020019060200280838360005b8381101561014c578082015181840152602081019050610131565b50505050905001838103825284818151815260200191508051906020019060200280838360005b8381101561018e578082015181840152602081019050610173565b5050505090500194505050505060405180910390f35b600060015443106101b85760019050610206565b6000600690505b6001811115610200576000600282815481106101d757fe5b906000526020600020015411156101f2576000915050610206565b8080600190039150506101bf565b50600190505b90565b60008060009054906101000a900473ffffffffffffffffffffffffffffffffffffffff1673ffffffffffffffffffffffffffffffffffffffff163373ffffffffffffffffffffffffffffffffffffffff16146102b0576040517f08c379a000000000000000000000000000000000000000000000000000000000815260040180806020018281038252602b81526020018061056f602b913960400191505060405180910390fd5b60006203d09083816102be57fe5b06905060046000815481106102cf57fe5b9060005260206000200154811015610367577f3b64e7cdd96af1b4f9b5116f9d8b5c6690a3c08ff821b7922d77da158e53ed2a8585836000604051808573ffffffffffffffffffffffffffffffffffffffff1673ffffffffffffffffffffffffffffffffffffffff16815260200184815260200183815260200182815260200194505050505060405180910390a160009150506104aa565b60008090505b60078110156104a3576004818154811061038357fe5b906000526020600020015482101580156103b65750600460018201815481106103a857fe5b906000526020600020015482105b15610496577f3b64e7cdd96af1b4f9b5116f9d8b5c6690a3c08ff821b7922d77da158e53ed2a868684600385815481106103ec57fe5b9060005260206000200154604051808573ffffffffffffffffffffffffffffffffffffffff1673ffffffffffffffffffffffffffffffffffffffff16815260200184815260200183815260200182815260200194505050505060405180910390a16002818154811061045a57fe5b9060005260206000200160008154809291906001900391905055506003818154811061048257fe5b9060005260206000200154925050506104aa565b808060010191505061036d565b5060009150505b9392505050565b6000600554905090565b606080600260038180548060200260200160405190810160405280929190818152602001828054801561050d57602002820191906000526020600020905b8154815260200190600101908083116104f9575b505050505091508080548060200260200160405190810160405280929190818152602001828054801561055f57602002820191906000526020600020905b81548152602001906001019080831161054b575b5050505050905091509150909156fe4f6e6c79205363726174636820636f6e74726163742063616e2063616c6c2074686973206d6574686f642ea2646970667358221220f34ebd072bcf0b7eafaa159fa0f678c9106ade297a1aa5418f1bc2610595935064736f6c6343000609003346756c696c6c6d656e74206f6e6c79207065726d697474656420627920436f6f7264696e61746f724e6f7420656e6f756768204c494e4b202d2066696c6c20636f6e74726163742077697468206661756365744e6f7420656e6f756768204c696e6b2063616e2062652073656e7420746f2074686520636f6e74726163742ea2646970667358221220b03fbc9b5139570af3727a766c725c25a40bf50eb69baed155c80238eff9293164736f6c6343000609003360806040526040518061010001604052806203030c62ffffff16815260200162038b9262ffffff1681526020016203baa462ffffff1681526020016203ca1262ffffff1681526020016203d00262ffffff1681526020016203d06662ffffff1681526020016203d08e62ffffff1681526020016203d09062ffffff16815250600490600861008e9291906103a4565b5034801561009b57600080fd5b506040516109fb3803806109fb833981810160405260208110156100be57600080fd5b8101908080519060200190929190505050336000806101000a81548173ffffffffffffffffffffffffffffffffffffffff021916908373ffffffffffffffffffffffffffffffffffffffff1602179055506208ca0043016001819055506002619ab090806001815401808255809150506001900390600052602060002001600090919091909150556002612ee090806001815401808255809150506001900390600052602060002001600090919091909150556002610fa0908060018154018082558091505060019003906000526020600020016000909190919091505560026105dc9080600181540180825580915050600190039060005260206000200160009091909190915055600260789080600181540180825580915050600190039060005260206000200160009091909190915055600260289080600181540180825580915050600190039060005260206000200160009091909190915055600280908060018154018082558091505060019003906000526020600020016000909190919091505562011ad0818161025057fe5b04600581905550600360026005548161026557fe5b04908060018154018082558091505060019003906000526020600020016000909190919091505560036005549080600181540180825580915050600190039060005260206000200160009091909190915055600360055460020290806001815401808255809150506001900390600052602060002001600090919091909150556003600554600a0290806001815401808255809150506001900390600052602060002001600090919091909150556003600554601e0290806001815401808255809150506001900390600052602060002001600090919091909150556003600554606402908060018154018082558091505060019003906000526020600020016000909190919091505560036005546113880290806001815401808255809150506001900390600052602060002001600090919091909150555061041d565b8280548282559060005260206000209081019282156103e7579160200282015b828111156103e6578251829062ffffff169055916020019190600101906103c4565b5b5090506103f491906103f8565b5090565b61041a91905b808211156104165760008160009055506001016103fe565b5090565b90565b6105cf8061042c6000396000f3fe608060405234801561001057600080fd5b506004361061004c5760003560e01c80632de1da6b1461005157806394ffd92114610073578063d79d63be146100df578063ff8de5ec146100fd575b600080fd5b6100596101a4565b604051808215151515815260200191505060405180910390f35b6100c96004803603606081101561008957600080fd5b81019080803573ffffffffffffffffffffffffffffffffffffffff1690602001909291908035906020019092919080359060200190929190505050610209565b6040518082815260200191505060405180910390f35b6100e76104b1565b6040518082815260200191505060405180910390f35b6101056104bb565b604051808060200180602001838103835285818151815260200191508051906020019060200280838360005b8381101561014c578082015181840152602081019050610131565b50505050905001838103825284818151815260200191508051906020019060200280838360005b8381101561018e578082015181840152602081019050610173565b5050505090500194505050505060405180910390f35b600060015443106101b85760019050610206565b6000600690505b6001811115610200576000600282815481106101d757fe5b906000526020600020015411156101f2576000915050610206565b8080600190039150506101bf565b50600190505b90565b60008060009054906101000a900473ffffffffffffffffffffffffffffffffffffffff1673ffffffffffffffffffffffffffffffffffffffff163373ffffffffffffffffffffffffffffffffffffffff16146102b0576040517f08c379a000000000000000000000000000000000000000000000000000000000815260040180806020018281038252602b81526020018061056f602b913960400191505060405180910390fd5b60006203d09083816102be57fe5b06905060046000815481106102cf57fe5b9060005260206000200154811015610367577f3b64e7cdd96af1b4f9b5116f9d8b5c6690a3c08ff821b7922d77da158e53ed2a8585836000604051808573ffffffffffffffffffffffffffffffffffffffff1673ffffffffffffffffffffffffffffffffffffffff16815260200184815260200183815260200182815260200194505050505060405180910390a160009150506104aa565b60008090505b60078110156104a3576004818154811061038357fe5b906000526020600020015482101580156103b65750600460018201815481106103a857fe5b906000526020600020015482105b15610496577f3b64e7cdd96af1b4f9b5116f9d8b5c6690a3c08ff821b7922d77da158e53ed2a868684600385815481106103ec57fe5b9060005260206000200154604051808573ffffffffffffffffffffffffffffffffffffffff1673ffffffffffffffffffffffffffffffffffffffff16815260200184815260200183815260200182815260200194505050505060405180910390a16002818154811061045a57fe5b9060005260206000200160008154809291906001900391905055506003818154811061048257fe5b9060005260206000200154925050506104aa565b808060010191505061036d565b5060009150505b9392505050565b6000600554905090565b606080600260038180548060200260200160405190810160405280929190818152602001828054801561050d57602002820191906000526020600020905b8154815260200190600101908083116104f9575b505050505091508080548060200260200160405190810160405280929190818152602001828054801561055f57602002820191906000526020600020905b81548152602001906001019080831161054b575b5050505050905091509150909156fe4f6e6c79205363726174636820636f6e74726163742063616e2063616c6c2074686973206d6574686f642ea2646970667358221220f34ebd072bcf0b7eafaa159fa0f678c9106ade297a1aa5418f1bc2610595935064736f6c63430006090033746f6b656e2062616c616e6365206973206c6f776572207468616e207468652076616c75652072657175657374656454686520706c617965727320726f756e64206d7573742062652063757272656e7420726f756e642e746f6b656e2062616c616e6365206f7220616c6c6f77616e6365206973206c6f776572207468616e20616d6f756e7420726571756573746564a2646970667358221220f042a6bde3ab6255c7c2d7c9f9ea2e9ab4f5c7b04b20f4c5c3ffcd05384f665464736f6c63430006090033608060405234801561001057600080fd5b5073a36085f69e2889c224210f603d836748e7dc0088600560006101000a81548173ffffffffffffffffffffffffffffffffffffffff021916908373ffffffffffffffffffffffffffffffffffffffff160217905550336000806101000a81548173ffffffffffffffffffffffffffffffffffffffff021916908373ffffffffffffffffffffffffffffffffffffffff1602179055506064430160068190555062039fbc6001819055506001600260007360a750f8f101e8bce54852849105d2ced89f1a1873ffffffffffffffffffffffffffffffffffffffff1673ffffffffffffffffffffffffffffffffffffffff16815260200190815260200160002060006101000a81548160ff021916908315150217905550610b39806101356000396000f3fe608060405234801561001057600080fd5b506004361061004c5760003560e01c806323b809951461005157806329dfaf0d1461007357806337c0a3cc1461007d5780638ced0908146100d9575b600080fd5b6100596100e3565b604051808215151515815260200191505060405180910390f35b61007b6100ef565b005b6100bf6004803603602081101561009357600080fd5b81019080803573ffffffffffffffffffffffffffffffffffffffff1690602001909291905050506104dc565b604051808215151515815260200191505060405180910390f35b6100e16104fc565b005b60006006544311905090565b6100f76100e3565b610169576040517f08c379a00000000000000000000000000000000000000000000000000000000081526004018080602001828103825260198152602001807f5468652073616c65206973206e6f74206f766572207965742e0000000000000081525060200191505060405180910390fd5b60001515600460003373ffffffffffffffffffffffffffffffffffffffff1673ffffffffffffffffffffffffffffffffffffffff16815260200190815260200160002060009054906101000a900460ff16151514610212576040517f08c379a0000000000000000000000000000000000000000000000000000000008152600401808060200182810382526026815260200180610ab26026913960400191505060405180910390fd5b60011515600460003373ffffffffffffffffffffffffffffffffffffffff1673ffffffffffffffffffffffffffffffffffffffff16815260200190815260200160002060009054906101000a905050506000600154670de0b6b3a7640000600560009054906101000a900473ffffffffffffffffffffffffffffffffffffffff1673ffffffffffffffffffffffffffffffffffffffff166370a082316000809054906101000a900473ffffffffffffffffffffffffffffffffffffffff166040518263ffffffff1660e01b8152600401808273ffffffffffffffffffffffffffffffffffffffff1673ffffffffffffffffffffffffffffffffffffffff16815260200191505060206040518083038186803b15801561033057600080fd5b505afa158015610344573d6000803e3d6000fd5b505050506040513d602081101561035a57600080fd5b81019080805190602001909291905050508161037257fe5b04600360003373ffffffffffffffffffffffffffffffffffffffff1673ffffffffffffffffffffffffffffffffffffffff16815260200190815260200160002054816103ba57fe5b040290506000809054906101000a900473ffffffffffffffffffffffffffffffffffffffff1673ffffffffffffffffffffffffffffffffffffffff1663a9059cbb33836040518363ffffffff1660e01b8152600401808373ffffffffffffffffffffffffffffffffffffffff1673ffffffffffffffffffffffffffffffffffffffff16815260200182815260200192505050602060405180830381600087803b15801561046657600080fd5b505af115801561047a573d6000803e3d6000fd5b505050506040513d602081101561049057600080fd5b8101908080519060200190929190505050507f5576ee2a23ea3f914c7897266d390a758b348da909ad515e2b6fe720bcb7f7e5816040518082815260200191505060405180910390a150565b60026020528060005260406000206000915054906101000a900460ff1681565b6105046100e3565b15610577576040517f08c379a00000000000000000000000000000000000000000000000000000000081526004018080602001828103825260118152602001807f5468652073616c65206973206f7665722e00000000000000000000000000000081525060200191505060405180910390fd5b60011515600260003373ffffffffffffffffffffffffffffffffffffffff1673ffffffffffffffffffffffffffffffffffffffff16815260200190815260200160002060009054906101000a900460ff16151514610620576040517f08c379a000000000000000000000000000000000000000000000000000000000815260040180806020018281038252602c815260200180610ad8602c913960400191505060405180910390fd5b6000600560009054906101000a900473ffffffffffffffffffffffffffffffffffffffff1673ffffffffffffffffffffffffffffffffffffffff1663dd62ed3e33306040518363ffffffff1660e01b8152600401808373ffffffffffffffffffffffffffffffffffffffff1673ffffffffffffffffffffffffffffffffffffffff1681526020018273ffffffffffffffffffffffffffffffffffffffff1673ffffffffffffffffffffffffffffffffffffffff1681526020019250505060206040518083038186803b1580156106f557600080fd5b505afa158015610709573d6000803e3d6000fd5b505050506040513d602081101561071f57600080fd5b81019080805190602001909291905050509050670de0b6b3a764000081116107af576040517f08c379a000000000000000000000000000000000000000000000000000000000815260040180806020018281038252601f8152602001807f4d7573742070726f76696465206d6f7265207468656e206f6e65206c696e6b0081525060200191505060405180910390fd5b600560009054906101000a900473ffffffffffffffffffffffffffffffffffffffff1673ffffffffffffffffffffffffffffffffffffffff166323b872dd336000809054906101000a900473ffffffffffffffffffffffffffffffffffffffff16846040518463ffffffff1660e01b8152600401808473ffffffffffffffffffffffffffffffffffffffff1673ffffffffffffffffffffffffffffffffffffffff1681526020018373ffffffffffffffffffffffffffffffffffffffff1673ffffffffffffffffffffffffffffffffffffffff1681526020018281526020019350505050602060405180830381600087803b1580156108ad57600080fd5b505af11580156108c1573d6000803e3d6000fd5b505050506040513d60208110156108d757600080fd5b81019080805190602001909291905050505080600360003373ffffffffffffffffffffffffffffffffffffffff1673ffffffffffffffffffffffffffffffffffffffff168152602001908152602001600020600082825401925050819055507f07da6046b46dcc0bee720255d6e9157a448b85a860407e3c4439a5d0ebd9fb33600560009054906101000a900473ffffffffffffffffffffffffffffffffffffffff1673ffffffffffffffffffffffffffffffffffffffff166370a082316000809054906101000a900473ffffffffffffffffffffffffffffffffffffffff166040518263ffffffff1660e01b8152600401808273ffffffffffffffffffffffffffffffffffffffff1673ffffffffffffffffffffffffffffffffffffffff16815260200191505060206040518083038186803b158015610a1757600080fd5b505afa158015610a2b573d6000803e3d6000fd5b505050506040513d6020811015610a4157600080fd5b8101908080519060200190929190505050600360003373ffffffffffffffffffffffffffffffffffffffff1673ffffffffffffffffffffffffffffffffffffffff16815260200190815260200160002054604051808381526020018281526020019250505060405180910390a15056fe546f6b656e7320616c726561647920636c61696d656420627920746869732061646472657373596f7520617265206e6f742070617274206f6620746865207363726174636820646f6e61746f7220706f6f6ca2646970667358221220049d888e07f2148ee846741709f7b4f47176b8bc83c8a809ae856008c255ac7464736f6c63430006090033",
  "immutableReferences": {},
  "source": "pragma solidity >=0.6.0;\r\n\r\nimport \"../client/node_modules/@chainlink/contracts/src/v0.6/interfaces/LinkTokenInterface.sol\";\r\n\r\nimport \"./Scratch.sol\";\r\n\r\ninterface ERC20Interface {\r\n\r\n    /// @param _owner The address from which the balance will be retrieved\r\n    /// @return balance the balance\r\n    function balanceOf(address _owner) external view returns (uint256 balance);\r\n\r\n    /// @notice send `_value` token to `_to` from `msg.sender`\r\n    /// @param _to The address of the recipient\r\n    /// @param _value The amount of token to be transferred\r\n    /// @return success Whether the transfer was successful or not\r\n    function transfer(address _to, uint256 _value)  external returns (bool success);\r\n\r\n    /// @notice send `_value` token to `_to` from `_from` on the condition it is approved by `_from`\r\n    /// @param _from The address of the sender\r\n    /// @param _to The address of the recipient\r\n    /// @param _value The amount of token to be transferred\r\n    /// @return success Whether the transfer was successful or not\r\n    function transferFrom(address _from, address _to, uint256 _value) external returns (bool success);\r\n\r\n    /// @notice `msg.sender` approves `_addr` to spend `_value` tokens\r\n    /// @param _spender The address of the account able to transfer the tokens\r\n    /// @param _value The amount of wei to be approved for transfer\r\n    /// @return success Whether the approval was successful or not\r\n    function approve(address _spender  , uint256 _value) external returns (bool success);\r\n\r\n    /// @param _owner The address of the account owning tokens\r\n    /// @param _spender The address of the account able to transfer the tokens\r\n    /// @return remaining Amount of remaining tokens allowed to spent\r\n    function allowance(address _owner, address _spender) external view returns (uint256 remaining);\r\n\r\n    event Transfer(address indexed _from, address indexed _to, uint256 _value);\r\n    event Approval(address indexed _owner, address indexed _spender, uint256 _value);\r\n}\r\n\r\ncontract ScratchToken is ERC20Interface {\r\n    uint256 constant private MAX_UINT256 = 2**256 - 1;\r\n    mapping (address => uint256) public balances;\r\n    mapping (address => mapping (address => uint256)) public allowed;\r\n    uint256 public totalSupply;\r\n    \r\n    address public tokenSale;\r\n\r\n    address public scratch;\r\n\r\n    LinkTokenInterface private LINK;\r\n\r\n    /*\r\n    NOTE:\r\n    The following variables are OPTIONAL vanities. One does not have to include them.\r\n    They allow one to customise the token contract & in no way influences the core functionality. \r\n    Some wallets/interfaces might not even bother to look at this information.\r\n    */\r\n    string public name;                   //fancy name: eg Simon Bucks\r\n    uint8 public decimals;                //How many decimals to show.\r\n    string public symbol;                 //An identifier: eg SBX\r\n\r\n    constructor(string memory _tokenName, uint8 _decimalUnits, string  memory _tokenSymbol) public{\r\n        //balances[msg.sender] = _initialAmount;             // Give the creator all initial tokens\r\n        totalSupply = 250000 * 10 ** 18;                      // Update total supply\r\n        name = _tokenName;                                   // Set the name for display purposes\r\n        decimals = _decimalUnits;                            // Amount of decimals for display purposes\r\n        symbol = _tokenSymbol;                               // Set the symbol for display purposes\r\n\r\n        tokenSale = address(new ScratchTokenSale());\r\n\r\n        balances[tokenSale] = 237500 * 10 ** 18;\r\n\r\n        balances[msg.sender] = 12500 * 10 ** 18;\r\n\r\n        LINK = LinkTokenInterface(0xa36085F69e2889c224210F603D836748e7dC0088);\r\n        \r\n        //owner = msg.sender;\r\n    }\r\n\r\n    // function called by Scratch main contract to mint amount tokens\r\n    function mint(address receiver, uint amount) public {\r\n        require(msg.sender == scratch, \"Invalid mint attempt\");\r\n        totalSupply += amount;\r\n        balances[receiver] += amount;\r\n    }\r\n\r\n    function getTotalSupply() public view returns(uint supply){\r\n        return totalSupply;\r\n    }\r\n\r\n    function endSale() public {\r\n        require(ScratchTokenSale(tokenSale).saleOver() && address(scratch) == address(0), \"The token sale is not over yet.\");\r\n        scratch = address(new Scratch(LINK.balanceOf(address(this)), this));\r\n        LINK.transfer(scratch, LINK.balanceOf(address(this)));\r\n    }\r\n\r\n    function transfer(address _to, uint256 _value) public override returns (bool success) {\r\n        require(balances[msg.sender] >= _value, \"token balance is lower than the value requested\");\r\n        require(Scratch(scratch).getPlayerRound(_to) == Scratch(scratch).getRound(), \"The players round must be current round.\");\r\n        balances[msg.sender] -= _value;\r\n        balances[_to] += _value;\r\n        emit Transfer(msg.sender, _to, _value); //solhint-disable-line indent, no-unused-vars\r\n        return true;\r\n    }\r\n\r\n    function transferFrom(address _from, address _to, uint256 _value) public override returns (bool success) {\r\n        uint256 allowance = allowed[_from][msg.sender];\r\n        require(balances[_from] >= _value && allowance >= _value, \"token balance or allowance is lower than amount requested\");\r\n        require(Scratch(scratch).getPlayerRound(_to) == Scratch(scratch).getRound(), \"The players round must be current round.\");\r\n        balances[_to] += _value;\r\n        balances[_from] -= _value;\r\n        if (allowance < MAX_UINT256) {\r\n            allowed[_from][msg.sender] -= _value;\r\n        }\r\n        emit Transfer(_from, _to, _value); //solhint-disable-line indent, no-unused-vars\r\n        return true;\r\n    }\r\n\r\n    function balanceOf(address _owner) public override view returns (uint256 balance) {\r\n        return balances[_owner];\r\n    }\r\n\r\n    function approve(address _spender, uint256 _value) public override returns (bool success) {\r\n        allowed[msg.sender][_spender] = _value;\r\n        emit Approval(msg.sender, _spender, _value); //solhint-disable-line indent, no-unused-vars\r\n        return true;\r\n    }\r\n\r\n    function allowance(address _owner, address _spender) public override view returns (uint256 remaining) {\r\n        return allowed[_owner][_spender];\r\n    }\r\n}\r\n\r\n// Contract to distribute ScratchTokens to the initial Scratch prize pool providers.\r\ncontract ScratchTokenSale{\r\n\r\n    // Variable to hold the address of the ScratchToken.\r\n    address scratchToken;\r\n\r\n    uint saleTotalTokens;\r\n\r\n    mapping(address => bool) public poolProviders;\r\n\r\n    mapping(address => uint) linkProvided;\r\n\r\n    mapping(address => bool) claimed;\r\n\r\n    LinkTokenInterface private LINK;\r\n    // 0xa36085F69e2889c224210F603D836748e7dC0088 link kovan address\r\n\r\n    // Block marking the end of the sale.\r\n    uint endblock;\r\n\r\n    event SuppliedPool(uint totalLink, uint provided);\r\n\r\n    event ReceivedTokens(uint received);\r\n\r\n    constructor() public{\r\n        LINK = LinkTokenInterface(0xa36085F69e2889c224210F603D836748e7dC0088);\r\n        scratchToken = msg.sender;\r\n        endblock = block.number + 100; //19200; // about three days worth of time to donate to the contract\r\n        saleTotalTokens = 237500;\r\n\r\n        poolProviders[0x60A750f8f101e8BCE54852849105d2Ced89f1a18] = true;\r\n    }\r\n\r\n    // Function to be called by initial prize pool providers to provide link.\r\n    function supplyPrizePool() public{\r\n        require(!saleOver() , \"The sale is over.\");\r\n        require(poolProviders[msg.sender] == true, \"You are not part of the scratch donator pool\");\r\n        uint providerAllowance = LINK.allowance(msg.sender, address(this));\r\n        require(providerAllowance > 10 ** 18, \"Must provide more then one link\");\r\n        LINK.transferFrom(msg.sender, scratchToken, providerAllowance);\r\n        linkProvided[msg.sender] += providerAllowance;\r\n        emit SuppliedPool(LINK.balanceOf(address(scratchToken)), linkProvided[msg.sender]);\r\n    }\r\n\r\n    function recieveTokens() public{\r\n        require(saleOver(), \"The sale is not over yet.\");\r\n        require(claimed[msg.sender] == false, \"Tokens already claimed by this address\");\r\n        claimed[msg.sender] == true;\r\n        uint receivedTokens = (linkProvided[msg.sender] /(LINK.balanceOf(address(scratchToken)) / 10 ** 18)) * saleTotalTokens;\r\n        ScratchToken(scratchToken).transfer(msg.sender, receivedTokens);\r\n        emit ReceivedTokens(receivedTokens);\r\n    }\r\n\r\n    function saleOver() public view returns(bool over){\r\n        return block.number > endblock;\r\n    }\r\n\r\n}\r\n\r\n",
  "sourcePath": "/mnt/c/Users/PC/Documents/Scratch/contracts/ScratchToken.sol",
  "compiler": {
    "name": "solc",
    "version": "0.6.9+commit.3e3065ac.Emscripten.clang"
  },
  "schemaVersion": "3.2.5",
  "updatedAt": "2020-09-27T17:56:19.004Z",
  "devdoc": {
    "methods": {}
  },
  "userdoc": {
    "methods": {}
  }
}