{
  "contractName": "Scratch",
  "abi": [
    {
      "inputs": [
        {
          "internalType": "uint256",
          "name": "initialLink",
          "type": "uint256"
        },
        {
          "internalType": "contract ScratchToken",
          "name": "scratchToken",
          "type": "address"
        }
      ],
      "stateMutability": "payable",
      "type": "constructor"
    },
    {
      "anonymous": false,
      "inputs": [
        {
          "indexed": false,
          "internalType": "address",
          "name": "player",
          "type": "address"
        },
        {
          "indexed": false,
          "internalType": "uint256",
          "name": "round",
          "type": "uint256"
        },
        {
          "indexed": false,
          "internalType": "uint256",
          "name": "poolPercent",
          "type": "uint256"
        },
        {
          "indexed": false,
          "internalType": "uint256",
          "name": "userPoolPercent",
          "type": "uint256"
        },
        {
          "indexed": false,
          "internalType": "uint256",
          "name": "dividend",
          "type": "uint256"
        }
      ],
      "name": "Dividend",
      "type": "event"
    },
    {
      "anonymous": false,
      "inputs": [
        {
          "indexed": false,
          "internalType": "uint256",
          "name": "totalPool",
          "type": "uint256"
        },
        {
          "indexed": false,
          "internalType": "uint256",
          "name": "tokenSupply",
          "type": "uint256"
        },
        {
          "indexed": false,
          "internalType": "uint256",
          "name": "mintAmount",
          "type": "uint256"
        },
        {
          "indexed": false,
          "internalType": "uint256",
          "name": "roundNumber",
          "type": "uint256"
        }
      ],
      "name": "NewRound",
      "type": "event"
    },
    {
      "anonymous": false,
      "inputs": [
        {
          "indexed": false,
          "internalType": "uint256",
          "name": "randomness",
          "type": "uint256"
        }
      ],
      "name": "RequestFulfilled",
      "type": "event"
    },
    {
      "anonymous": false,
      "inputs": [
        {
          "indexed": false,
          "internalType": "bytes32",
          "name": "requestId",
          "type": "bytes32"
        }
      ],
      "name": "RequestID",
      "type": "event"
    },
    {
      "inputs": [
        {
          "internalType": "address",
          "name": "",
          "type": "address"
        }
      ],
      "name": "AddressToRound",
      "outputs": [
        {
          "internalType": "uint256",
          "name": "",
          "type": "uint256"
        }
      ],
      "stateMutability": "view",
      "type": "function"
    },
    {
      "inputs": [],
      "name": "MintAmount",
      "outputs": [
        {
          "internalType": "uint256",
          "name": "",
          "type": "uint256"
        }
      ],
      "stateMutability": "view",
      "type": "function"
    },
    {
      "inputs": [
        {
          "internalType": "uint256",
          "name": "",
          "type": "uint256"
        }
      ],
      "name": "PoolTotals",
      "outputs": [
        {
          "internalType": "uint256",
          "name": "liquidity",
          "type": "uint256"
        },
        {
          "internalType": "uint256",
          "name": "tokens",
          "type": "uint256"
        }
      ],
      "stateMutability": "view",
      "type": "function"
    },
    {
      "inputs": [],
      "name": "RoundNumber",
      "outputs": [
        {
          "internalType": "uint256",
          "name": "",
          "type": "uint256"
        }
      ],
      "stateMutability": "view",
      "type": "function"
    },
    {
      "inputs": [
        {
          "internalType": "bytes32",
          "name": "",
          "type": "bytes32"
        }
      ],
      "name": "nonces",
      "outputs": [
        {
          "internalType": "uint256",
          "name": "",
          "type": "uint256"
        }
      ],
      "stateMutability": "view",
      "type": "function"
    },
    {
      "inputs": [
        {
          "internalType": "bytes32",
          "name": "requestId",
          "type": "bytes32"
        },
        {
          "internalType": "uint256",
          "name": "randomness",
          "type": "uint256"
        }
      ],
      "name": "rawFulfillRandomness",
      "outputs": [],
      "stateMutability": "nonpayable",
      "type": "function"
    },
    {
      "inputs": [
        {
          "internalType": "bytes32",
          "name": "_keyHash",
          "type": "bytes32"
        },
        {
          "internalType": "uint256",
          "name": "_fee",
          "type": "uint256"
        },
        {
          "internalType": "uint256",
          "name": "_seed",
          "type": "uint256"
        }
      ],
      "name": "requestRandomness",
      "outputs": [
        {
          "internalType": "bytes32",
          "name": "requestId",
          "type": "bytes32"
        }
      ],
      "stateMutability": "nonpayable",
      "type": "function"
    },
    {
      "inputs": [
        {
          "internalType": "uint256",
          "name": "userProvidedSeed",
          "type": "uint256"
        }
      ],
      "name": "buyScatchCard",
      "outputs": [],
      "stateMutability": "nonpayable",
      "type": "function"
    },
    {
      "inputs": [],
      "name": "newRound",
      "outputs": [],
      "stateMutability": "nonpayable",
      "type": "function"
    },
    {
      "inputs": [],
      "name": "receiveDividend",
      "outputs": [],
      "stateMutability": "nonpayable",
      "type": "function"
    },
    {
      "inputs": [],
      "name": "getCardRound",
      "outputs": [
        {
          "internalType": "address",
          "name": "CardRoundAddress",
          "type": "address"
        }
      ],
      "stateMutability": "view",
      "type": "function"
    },
    {
      "inputs": [
        {
          "internalType": "address",
          "name": "player",
          "type": "address"
        }
      ],
      "name": "getPlayerRound",
      "outputs": [
        {
          "internalType": "uint256",
          "name": "CardRoundNumber",
          "type": "uint256"
        }
      ],
      "stateMutability": "view",
      "type": "function"
    },
    {
      "inputs": [],
      "name": "getRound",
      "outputs": [
        {
          "internalType": "uint256",
          "name": "round",
          "type": "uint256"
        }
      ],
      "stateMutability": "view",
      "type": "function"
    },
    {
      "inputs": [],
      "name": "getToken",
      "outputs": [
        {
          "internalType": "address",
          "name": "TokenAddress",
          "type": "address"
        }
      ],
      "stateMutability": "view",
      "type": "function"
    },
    {
      "inputs": [],
      "name": "getContractAllowance",
      "outputs": [
        {
          "internalType": "uint256",
          "name": "allowance",
          "type": "uint256"
        }
      ],
      "stateMutability": "view",
      "type": "function"
    },
    {
      "inputs": [
        {
          "internalType": "address",
          "name": "owner",
          "type": "address"
        }
      ],
      "name": "getLinkBalance",
      "outputs": [
        {
          "internalType": "uint256",
          "name": "balance",
          "type": "uint256"
        }
      ],
      "stateMutability": "view",
      "type": "function"
    }
  ],
  "bytecode": "0x60806040526040516200360e3803806200360e8339818101604052604081101561002857600080fd5b81019080805190602001909291908051906020019092919050505073f490ac64087d59381faf8bf49da299c073aac15273a36085f69e2889c224210f603d836748e7dc008881600160006101000a81548173ffffffffffffffffffffffffffffffffffffffff021916908373ffffffffffffffffffffffffffffffffffffffff160217905550806000806101000a81548173ffffffffffffffffffffffffffffffffffffffff021916908373ffffffffffffffffffffffffffffffffffffffff16021790555050507f6c3699283bda56ad74f6b855546325b68d482e983852a7a82979cc4807b641f460001b60038190555067016345785d8a000060048190555081604051610136906101fc565b80828152602001915050604051809103906000f08015801561015c573d6000803e3d6000fd5b50600860006101000a81548173ffffffffffffffffffffffffffffffffffffffff021916908373ffffffffffffffffffffffffffffffffffffffff1602179055506001600a8190555080600960006101000a81548173ffffffffffffffffffffffffffffffffffffffff021916908373ffffffffffffffffffffffffffffffffffffffff160217905550670de0b6b3a7640000600b81905550505061020a565b6109fb8062002c1383390190565b6129f9806200021a6000396000f3fe60806040523480156200001157600080fd5b5060043610620001185760003560e01c806394985ddd11620000a5578063b87dadd8116200006f578063b87dadd814620003a8578063c321f6d81462000403578063c5b1d9aa146200044f578063dc6cfe10146200045b5762000118565b806394985ddd14620002d75780639e317f1214620003125780639f8743f71462000357578063af6434fb14620003775762000118565b80637ac5d8a911620000e75780637ac5d8a9146200021c5780638c38858b146200023c5780638c7c6fd6146200025c57806392899fcc146200027c5762000118565b8063084c78f8146200011d5780631b4948fd146200016957806321df0da714620001c457806352f107c21462000210575b600080fd5b62000127620004b4565b604051808273ffffffffffffffffffffffffffffffffffffffff1673ffffffffffffffffffffffffffffffffffffffff16815260200191505060405180910390f35b620001ae600480360360208110156200018157600080fd5b81019080803573ffffffffffffffffffffffffffffffffffffffff169060200190929190505050620004de565b6040518082815260200191505060405180910390f35b620001ce620004f6565b604051808273ffffffffffffffffffffffffffffffffffffffff1673ffffffffffffffffffffffffffffffffffffffff16815260200191505060405180910390f35b6200021a62000520565b005b6200022662000998565b6040518082815260200191505060405180910390f35b620002466200099e565b6040518082815260200191505060405180910390f35b62000266620009a4565b6040518082815260200191505060405180910390f35b620002c1600480360360208110156200029457600080fd5b81019080803573ffffffffffffffffffffffffffffffffffffffff16906020019092919050505062000abb565b6040518082815260200191505060405180910390f35b6200031060048036036040811015620002ef57600080fd5b81019080803590602001909291908035906020019092919050505062000b04565b005b62000341600480360360208110156200032a57600080fd5b810190808035906020019092919050505062000bd8565b6040518082815260200191505060405180910390f35b6200036162000bf0565b6040518082815260200191505060405180910390f35b620003a6600480360360208110156200038f57600080fd5b810190808035906020019092919050505062000bfa565b005b620003ed60048036036020811015620003c057600080fd5b81019080803573ffffffffffffffffffffffffffffffffffffffff16906020019092919050505062000fbf565b6040518082815260200191505060405180910390f35b62000432600480360360208110156200041b57600080fd5b8101908080359060200190929190505050620010a4565b604051808381526020018281526020019250505060405180910390f35b62000459620010c8565b005b6200049e600480360360608110156200047357600080fd5b8101908080359060200190929190803590602001909291908035906020019092919050505062001648565b6040518082815260200191505060405180910390f35b6000600860009054906101000a900473ffffffffffffffffffffffffffffffffffffffff16905090565b60066020528060005260406000206000915090505481565b6000600960009054906101000a900473ffffffffffffffffffffffffffffffffffffffff16905090565b600a54600660003373ffffffffffffffffffffffffffffffffffffffff1673ffffffffffffffffffffffffffffffffffffffff16815260200190815260200160002054108015620005b057506000600660003373ffffffffffffffffffffffffffffffffffffffff1673ffffffffffffffffffffffffffffffffffffffff16815260200190815260200160002054115b62000623576040517f08c379a000000000000000000000000000000000000000000000000000000000815260040180806020018281038252601d8152602001807f496e76616c6964206469766964656e64207061727469636970616e742e00000081525060200191505060405180910390fd5b6000600660003373ffffffffffffffffffffffffffffffffffffffff1673ffffffffffffffffffffffffffffffffffffffff168152602001908152602001600020549050600a54600660003373ffffffffffffffffffffffffffffffffffffffff1673ffffffffffffffffffffffffffffffffffffffff168152602001908152602001600020819055505b600a5481101562000995576000611770612710600760008581526020019081526020016000206000015481620006e057fe5b040290506000670de0b6b3a76400006007600085815260200190815260200160002060010154816200070e57fe5b04600960009054906101000a900473ffffffffffffffffffffffffffffffffffffffff1673ffffffffffffffffffffffffffffffffffffffff166370a08231336040518263ffffffff1660e01b8152600401808273ffffffffffffffffffffffffffffffffffffffff1673ffffffffffffffffffffffffffffffffffffffff16815260200191505060206040518083038186803b158015620007af57600080fd5b505afa158015620007c4573d6000803e3d6000fd5b505050506040513d6020811015620007db57600080fd5b810190808051906020019092919050505081620007f457fe5b0490506000633b9aca0083816200080757fe5b04633b9aca0083816200081657fe5b040290506000809054906101000a900473ffffffffffffffffffffffffffffffffffffffff1673ffffffffffffffffffffffffffffffffffffffff1663a9059cbb33836040518363ffffffff1660e01b8152600401808373ffffffffffffffffffffffffffffffffffffffff1673ffffffffffffffffffffffffffffffffffffffff16815260200182815260200192505050602060405180830381600087803b158015620008c357600080fd5b505af1158015620008d8573d6000803e3d6000fd5b505050506040513d6020811015620008ef57600080fd5b8101908080519060200190929190505050507ffb78800bfcff6977658023003598b31f55709953ccbe3e973eb9608a04237c123385858585604051808673ffffffffffffffffffffffffffffffffffffffff1673ffffffffffffffffffffffffffffffffffffffff1681526020018581526020018481526020018381526020018281526020019550505050505060405180910390a15050508080600101915050620006ae565b50565b600a5481565b600b5481565b60008060009054906101000a900473ffffffffffffffffffffffffffffffffffffffff1673ffffffffffffffffffffffffffffffffffffffff1663dd62ed3e33306040518363ffffffff1660e01b8152600401808373ffffffffffffffffffffffffffffffffffffffff1673ffffffffffffffffffffffffffffffffffffffff1681526020018273ffffffffffffffffffffffffffffffffffffffff1673ffffffffffffffffffffffffffffffffffffffff1681526020019250505060206040518083038186803b15801562000a7957600080fd5b505afa15801562000a8e573d6000803e3d6000fd5b505050506040513d602081101562000aa557600080fd5b8101908080519060200190929190505050905090565b6000600660008373ffffffffffffffffffffffffffffffffffffffff1673ffffffffffffffffffffffffffffffffffffffff168152602001908152602001600020549050919050565b600160009054906101000a900473ffffffffffffffffffffffffffffffffffffffff1673ffffffffffffffffffffffffffffffffffffffff163373ffffffffffffffffffffffffffffffffffffffff161462000bc8576040517f08c379a000000000000000000000000000000000000000000000000000000000815260040180806020018281038252601f8152602001807f4f6e6c7920565246436f6f7264696e61746f722063616e2066756c66696c6c0081525060200191505060405180910390fd5b62000bd4828262001865565b5050565b60026020528060005260406000206000915090505481565b6000600a54905090565b6000600454600860009054906101000a900473ffffffffffffffffffffffffffffffffffffffff1673ffffffffffffffffffffffffffffffffffffffff1663d79d63be6040518163ffffffff1660e01b815260040160206040518083038186803b15801562000c6857600080fd5b505afa15801562000c7d573d6000803e3d6000fd5b505050506040513d602081101562000c9457600080fd5b8101908080519060200190929190505050019050806000809054906101000a900473ffffffffffffffffffffffffffffffffffffffff1673ffffffffffffffffffffffffffffffffffffffff1663dd62ed3e33306040518363ffffffff1660e01b8152600401808373ffffffffffffffffffffffffffffffffffffffff1673ffffffffffffffffffffffffffffffffffffffff1681526020018273ffffffffffffffffffffffffffffffffffffffff1673ffffffffffffffffffffffffffffffffffffffff1681526020019250505060206040518083038186803b15801562000d7c57600080fd5b505afa15801562000d91573d6000803e3d6000fd5b505050506040513d602081101562000da857600080fd5b8101908080519060200190929190505050101562000e12576040517f08c379a000000000000000000000000000000000000000000000000000000000815260040180806020018281038252602c81526020018062002998602c913960400191505060405180910390fd5b6000809054906101000a900473ffffffffffffffffffffffffffffffffffffffff1673ffffffffffffffffffffffffffffffffffffffff166323b872dd3330846040518463ffffffff1660e01b8152600401808473ffffffffffffffffffffffffffffffffffffffff1673ffffffffffffffffffffffffffffffffffffffff1681526020018373ffffffffffffffffffffffffffffffffffffffff1673ffffffffffffffffffffffffffffffffffffffff1681526020018281526020019350505050602060405180830381600087803b15801562000eef57600080fd5b505af115801562000f04573d6000803e3d6000fd5b505050506040513d602081101562000f1b57600080fd5b81019080805190602001909291905050501562000fbb57600a54600660003373ffffffffffffffffffffffffffffffffffffffff1673ffffffffffffffffffffffffffffffffffffffff168152602001908152602001600020819055507fec8c2237ef5a149555e0d3b8af26b48c39e3862ad4697de99fe6dd3601d49db762000fa5833362001c55565b6040518082815260200191505060405180910390a15b5050565b60008060009054906101000a900473ffffffffffffffffffffffffffffffffffffffff1673ffffffffffffffffffffffffffffffffffffffff166370a08231836040518263ffffffff1660e01b8152600401808273ffffffffffffffffffffffffffffffffffffffff1673ffffffffffffffffffffffffffffffffffffffff16815260200191505060206040518083038186803b1580156200106057600080fd5b505afa15801562001075573d6000803e3d6000fd5b505050506040513d60208110156200108c57600080fd5b81019080805190602001909291905050509050919050565b60076020528060005260406000206000915090508060000154908060010154905082565b600860009054906101000a900473ffffffffffffffffffffffffffffffffffffffff1673ffffffffffffffffffffffffffffffffffffffff16632de1da6b6040518163ffffffff1660e01b815260040160206040518083038186803b1580156200113157600080fd5b505afa15801562001146573d6000803e3d6000fd5b505050506040513d60208110156200115d57600080fd5b8101908080519060200190929190505050620011e1576040517f08c379a000000000000000000000000000000000000000000000000000000000815260040180806020018281038252601a8152602001807f54686520726f756e64206973206e6f74206f766572207965742e00000000000081525060200191505060405180910390fd5b6000600960009054906101000a900473ffffffffffffffffffffffffffffffffffffffff1673ffffffffffffffffffffffffffffffffffffffff166370a08231336040518263ffffffff1660e01b8152600401808273ffffffffffffffffffffffffffffffffffffffff1673ffffffffffffffffffffffffffffffffffffffff16815260200191505060206040518083038186803b1580156200128357600080fd5b505afa15801562001298573d6000803e3d6000fd5b505050506040513d6020811015620012af57600080fd5b81019080805190602001909291905050501162001334576040517f08c379a000000000000000000000000000000000000000000000000000000000815260040180806020018281038252601a8152602001807f596f7520617265206e6f742061207061727469636970616e742e00000000000081525060200191505060405180910390fd5b60405180604001604052806000809054906101000a900473ffffffffffffffffffffffffffffffffffffffff1673ffffffffffffffffffffffffffffffffffffffff166370a08231306040518263ffffffff1660e01b8152600401808273ffffffffffffffffffffffffffffffffffffffff1673ffffffffffffffffffffffffffffffffffffffff16815260200191505060206040518083038186803b158015620013de57600080fd5b505afa158015620013f3573d6000803e3d6000fd5b505050506040513d60208110156200140a57600080fd5b81019080805190602001909291905050508152602001600960009054906101000a900473ffffffffffffffffffffffffffffffffffffffff1673ffffffffffffffffffffffffffffffffffffffff1663c4e41b226040518163ffffffff1660e01b815260040160206040518083038186803b1580156200148957600080fd5b505afa1580156200149e573d6000803e3d6000fd5b505050506040513d6020811015620014b557600080fd5b810190808051906020019092919050505081525060076000600a5481526020019081526020016000206000820151816000015560208201518160010155905050610b5061271060076000600a54815260200190815260200160002060000154816200151c57fe5b04026040516200152c9062001f3b565b80828152602001915050604051809103906000f08015801562001553573d6000803e3d6000fd5b50600860006101000a81548173ffffffffffffffffffffffffffffffffffffffff021916908373ffffffffffffffffffffffffffffffffffffffff16021790555060506064600b5481620015a357fe5b0402600b81905550600a600081548092919060010191905055507fb5d8636ab45e6cac7a4a61cb7c77f77f61a454d73aa2e6139ff8dcaf463537e5600760006001600a5403815260200190815260200160002060000154600760006001600a5403815260200190815260200160002060010154600b54600a546040518085815260200184815260200183815260200182815260200194505050505060405180910390a1565b60008060009054906101000a900473ffffffffffffffffffffffffffffffffffffffff1673ffffffffffffffffffffffffffffffffffffffff16634000aea0600160009054906101000a900473ffffffffffffffffffffffffffffffffffffffff1685878660405160200180838152602001828152602001925050506040516020818303038152906040526040518463ffffffff1660e01b8152600401808473ffffffffffffffffffffffffffffffffffffffff1673ffffffffffffffffffffffffffffffffffffffff16815260200183815260200180602001828103825283818151815260200191508051906020019080838360005b838110156200175c5780820151818401526020810190506200173f565b50505050905090810190601f1680156200178a5780820380516001836020036101000a031916815260200191505b50945050505050602060405180830381600087803b158015620017ac57600080fd5b505af1158015620017c1573d6000803e3d6000fd5b505050506040513d6020811015620017d857600080fd5b81019080805190602001909291905050505060006200180d858430600260008a81526020019081526020016000205462001dff565b9050620018386001600260008881526020019081526020016000205462001e7990919063ffffffff16565b60026000878152602001908152602001600020819055506200185b858262001f02565b9150509392505050565b600160009054906101000a900473ffffffffffffffffffffffffffffffffffffffff1673ffffffffffffffffffffffffffffffffffffffff163373ffffffffffffffffffffffffffffffffffffffff16146200190d576040517f08c379a0000000000000000000000000000000000000000000000000000000008152600401808060200182810382526028815260200180620029456028913960400191505060405180910390fd5b6000600860009054906101000a900473ffffffffffffffffffffffffffffffffffffffff1673ffffffffffffffffffffffffffffffffffffffff166394ffd9216005600086815260200190815260200160002060009054906101000a900473ffffffffffffffffffffffffffffffffffffffff1685856040518463ffffffff1660e01b8152600401808473ffffffffffffffffffffffffffffffffffffffff1673ffffffffffffffffffffffffffffffffffffffff1681526020018381526020018281526020019350505050602060405180830381600087803b158015620019f457600080fd5b505af115801562001a09573d6000803e3d6000fd5b505050506040513d602081101562001a2057600080fd5b81019080805190602001909291905050509050600081111562001b58576000809054906101000a900473ffffffffffffffffffffffffffffffffffffffff1673ffffffffffffffffffffffffffffffffffffffff1663a9059cbb6005600086815260200190815260200160002060009054906101000a900473ffffffffffffffffffffffffffffffffffffffff16836040518363ffffffff1660e01b8152600401808373ffffffffffffffffffffffffffffffffffffffff1673ffffffffffffffffffffffffffffffffffffffff16815260200182815260200192505050602060405180830381600087803b15801562001b1957600080fd5b505af115801562001b2e573d6000803e3d6000fd5b505050506040513d602081101562001b4557600080fd5b8101908080519060200190929190505050505b600960009054906101000a900473ffffffffffffffffffffffffffffffffffffffff1673ffffffffffffffffffffffffffffffffffffffff166340c10f196005600086815260200190815260200160002060009054906101000a900473ffffffffffffffffffffffffffffffffffffffff16600b546040518363ffffffff1660e01b8152600401808373ffffffffffffffffffffffffffffffffffffffff1673ffffffffffffffffffffffffffffffffffffffff16815260200182815260200192505050600060405180830381600087803b15801562001c3757600080fd5b505af115801562001c4c573d6000803e3d6000fd5b50505050505050565b60006004546000809054906101000a900473ffffffffffffffffffffffffffffffffffffffff1673ffffffffffffffffffffffffffffffffffffffff166370a08231306040518263ffffffff1660e01b8152600401808273ffffffffffffffffffffffffffffffffffffffff1673ffffffffffffffffffffffffffffffffffffffff16815260200191505060206040518083038186803b15801562001cf957600080fd5b505afa15801562001d0e573d6000803e3d6000fd5b505050506040513d602081101562001d2557600080fd5b81019080805190602001909291905050501162001d8e576040517f08c379a000000000000000000000000000000000000000000000000000000000815260040180806020018281038252602b8152602001806200296d602b913960400191505060405180910390fd5b600062001da16003546004548662001648565b9050826005600083815260200190815260200160002060006101000a81548173ffffffffffffffffffffffffffffffffffffffff021916908373ffffffffffffffffffffffffffffffffffffffff1602179055508091505092915050565b600084848484604051602001808581526020018481526020018373ffffffffffffffffffffffffffffffffffffffff1673ffffffffffffffffffffffffffffffffffffffff1681526020018281526020019450505050506040516020818303038152906040528051906020012060001c9050949350505050565b60008082840190508381101562001ef8576040517f08c379a000000000000000000000000000000000000000000000000000000000815260040180806020018281038252601b8152602001807f536166654d6174683a206164646974696f6e206f766572666c6f77000000000081525060200191505060405180910390fd5b8091505092915050565b60008282604051602001808381526020018281526020019250505060405160208183030381529060405280519060200120905092915050565b6109fb8062001f4a8339019056fe60806040526040518061010001604052806203030c62ffffff16815260200162038b9262ffffff1681526020016203baa462ffffff1681526020016203ca1262ffffff1681526020016203d00262ffffff1681526020016203d06662ffffff1681526020016203d08e62ffffff1681526020016203d09062ffffff16815250600490600861008e9291906103a4565b5034801561009b57600080fd5b506040516109fb3803806109fb833981810160405260208110156100be57600080fd5b8101908080519060200190929190505050336000806101000a81548173ffffffffffffffffffffffffffffffffffffffff021916908373ffffffffffffffffffffffffffffffffffffffff1602179055506208ca0043016001819055506002619ab090806001815401808255809150506001900390600052602060002001600090919091909150556002612ee090806001815401808255809150506001900390600052602060002001600090919091909150556002610fa0908060018154018082558091505060019003906000526020600020016000909190919091505560026105dc9080600181540180825580915050600190039060005260206000200160009091909190915055600260789080600181540180825580915050600190039060005260206000200160009091909190915055600260289080600181540180825580915050600190039060005260206000200160009091909190915055600280908060018154018082558091505060019003906000526020600020016000909190919091505562011ad0818161025057fe5b04600581905550600360026005548161026557fe5b04908060018154018082558091505060019003906000526020600020016000909190919091505560036005549080600181540180825580915050600190039060005260206000200160009091909190915055600360055460020290806001815401808255809150506001900390600052602060002001600090919091909150556003600554600a0290806001815401808255809150506001900390600052602060002001600090919091909150556003600554601e0290806001815401808255809150506001900390600052602060002001600090919091909150556003600554606402908060018154018082558091505060019003906000526020600020016000909190919091505560036005546113880290806001815401808255809150506001900390600052602060002001600090919091909150555061041d565b8280548282559060005260206000209081019282156103e7579160200282015b828111156103e6578251829062ffffff169055916020019190600101906103c4565b5b5090506103f491906103f8565b5090565b61041a91905b808211156104165760008160009055506001016103fe565b5090565b90565b6105cf8061042c6000396000f3fe608060405234801561001057600080fd5b506004361061004c5760003560e01c80632de1da6b1461005157806394ffd92114610073578063d79d63be146100df578063ff8de5ec146100fd575b600080fd5b6100596101a4565b604051808215151515815260200191505060405180910390f35b6100c96004803603606081101561008957600080fd5b81019080803573ffffffffffffffffffffffffffffffffffffffff1690602001909291908035906020019092919080359060200190929190505050610209565b6040518082815260200191505060405180910390f35b6100e76104b1565b6040518082815260200191505060405180910390f35b6101056104bb565b604051808060200180602001838103835285818151815260200191508051906020019060200280838360005b8381101561014c578082015181840152602081019050610131565b50505050905001838103825284818151815260200191508051906020019060200280838360005b8381101561018e578082015181840152602081019050610173565b5050505090500194505050505060405180910390f35b600060015443106101b85760019050610206565b6000600690505b6001811115610200576000600282815481106101d757fe5b906000526020600020015411156101f2576000915050610206565b8080600190039150506101bf565b50600190505b90565b60008060009054906101000a900473ffffffffffffffffffffffffffffffffffffffff1673ffffffffffffffffffffffffffffffffffffffff163373ffffffffffffffffffffffffffffffffffffffff16146102b0576040517f08c379a000000000000000000000000000000000000000000000000000000000815260040180806020018281038252602b81526020018061056f602b913960400191505060405180910390fd5b60006203d09083816102be57fe5b06905060046000815481106102cf57fe5b9060005260206000200154811015610367577f3b64e7cdd96af1b4f9b5116f9d8b5c6690a3c08ff821b7922d77da158e53ed2a8585836000604051808573ffffffffffffffffffffffffffffffffffffffff1673ffffffffffffffffffffffffffffffffffffffff16815260200184815260200183815260200182815260200194505050505060405180910390a160009150506104aa565b60008090505b60078110156104a3576004818154811061038357fe5b906000526020600020015482101580156103b65750600460018201815481106103a857fe5b906000526020600020015482105b15610496577f3b64e7cdd96af1b4f9b5116f9d8b5c6690a3c08ff821b7922d77da158e53ed2a868684600385815481106103ec57fe5b9060005260206000200154604051808573ffffffffffffffffffffffffffffffffffffffff1673ffffffffffffffffffffffffffffffffffffffff16815260200184815260200183815260200182815260200194505050505060405180910390a16002818154811061045a57fe5b9060005260206000200160008154809291906001900391905055506003818154811061048257fe5b9060005260206000200154925050506104aa565b808060010191505061036d565b5060009150505b9392505050565b6000600554905090565b606080600260038180548060200260200160405190810160405280929190818152602001828054801561050d57602002820191906000526020600020905b8154815260200190600101908083116104f9575b505050505091508080548060200260200160405190810160405280929190818152602001828054801561055f57602002820191906000526020600020905b81548152602001906001019080831161054b575b5050505050905091509150909156fe4f6e6c79205363726174636820636f6e74726163742063616e2063616c6c2074686973206d6574686f642ea2646970667358221220f34ebd072bcf0b7eafaa159fa0f678c9106ade297a1aa5418f1bc2610595935064736f6c6343000609003346756c696c6c6d656e74206f6e6c79207065726d697474656420627920436f6f7264696e61746f724e6f7420656e6f756768204c494e4b202d2066696c6c20636f6e74726163742077697468206661756365744e6f7420656e6f756768204c696e6b2063616e2062652073656e7420746f2074686520636f6e74726163742ea2646970667358221220b03fbc9b5139570af3727a766c725c25a40bf50eb69baed155c80238eff9293164736f6c6343000609003360806040526040518061010001604052806203030c62ffffff16815260200162038b9262ffffff1681526020016203baa462ffffff1681526020016203ca1262ffffff1681526020016203d00262ffffff1681526020016203d06662ffffff1681526020016203d08e62ffffff1681526020016203d09062ffffff16815250600490600861008e9291906103a4565b5034801561009b57600080fd5b506040516109fb3803806109fb833981810160405260208110156100be57600080fd5b8101908080519060200190929190505050336000806101000a81548173ffffffffffffffffffffffffffffffffffffffff021916908373ffffffffffffffffffffffffffffffffffffffff1602179055506208ca0043016001819055506002619ab090806001815401808255809150506001900390600052602060002001600090919091909150556002612ee090806001815401808255809150506001900390600052602060002001600090919091909150556002610fa0908060018154018082558091505060019003906000526020600020016000909190919091505560026105dc9080600181540180825580915050600190039060005260206000200160009091909190915055600260789080600181540180825580915050600190039060005260206000200160009091909190915055600260289080600181540180825580915050600190039060005260206000200160009091909190915055600280908060018154018082558091505060019003906000526020600020016000909190919091505562011ad0818161025057fe5b04600581905550600360026005548161026557fe5b04908060018154018082558091505060019003906000526020600020016000909190919091505560036005549080600181540180825580915050600190039060005260206000200160009091909190915055600360055460020290806001815401808255809150506001900390600052602060002001600090919091909150556003600554600a0290806001815401808255809150506001900390600052602060002001600090919091909150556003600554601e0290806001815401808255809150506001900390600052602060002001600090919091909150556003600554606402908060018154018082558091505060019003906000526020600020016000909190919091505560036005546113880290806001815401808255809150506001900390600052602060002001600090919091909150555061041d565b8280548282559060005260206000209081019282156103e7579160200282015b828111156103e6578251829062ffffff169055916020019190600101906103c4565b5b5090506103f491906103f8565b5090565b61041a91905b808211156104165760008160009055506001016103fe565b5090565b90565b6105cf8061042c6000396000f3fe608060405234801561001057600080fd5b506004361061004c5760003560e01c80632de1da6b1461005157806394ffd92114610073578063d79d63be146100df578063ff8de5ec146100fd575b600080fd5b6100596101a4565b604051808215151515815260200191505060405180910390f35b6100c96004803603606081101561008957600080fd5b81019080803573ffffffffffffffffffffffffffffffffffffffff1690602001909291908035906020019092919080359060200190929190505050610209565b6040518082815260200191505060405180910390f35b6100e76104b1565b6040518082815260200191505060405180910390f35b6101056104bb565b604051808060200180602001838103835285818151815260200191508051906020019060200280838360005b8381101561014c578082015181840152602081019050610131565b50505050905001838103825284818151815260200191508051906020019060200280838360005b8381101561018e578082015181840152602081019050610173565b5050505090500194505050505060405180910390f35b600060015443106101b85760019050610206565b6000600690505b6001811115610200576000600282815481106101d757fe5b906000526020600020015411156101f2576000915050610206565b8080600190039150506101bf565b50600190505b90565b60008060009054906101000a900473ffffffffffffffffffffffffffffffffffffffff1673ffffffffffffffffffffffffffffffffffffffff163373ffffffffffffffffffffffffffffffffffffffff16146102b0576040517f08c379a000000000000000000000000000000000000000000000000000000000815260040180806020018281038252602b81526020018061056f602b913960400191505060405180910390fd5b60006203d09083816102be57fe5b06905060046000815481106102cf57fe5b9060005260206000200154811015610367577f3b64e7cdd96af1b4f9b5116f9d8b5c6690a3c08ff821b7922d77da158e53ed2a8585836000604051808573ffffffffffffffffffffffffffffffffffffffff1673ffffffffffffffffffffffffffffffffffffffff16815260200184815260200183815260200182815260200194505050505060405180910390a160009150506104aa565b60008090505b60078110156104a3576004818154811061038357fe5b906000526020600020015482101580156103b65750600460018201815481106103a857fe5b906000526020600020015482105b15610496577f3b64e7cdd96af1b4f9b5116f9d8b5c6690a3c08ff821b7922d77da158e53ed2a868684600385815481106103ec57fe5b9060005260206000200154604051808573ffffffffffffffffffffffffffffffffffffffff1673ffffffffffffffffffffffffffffffffffffffff16815260200184815260200183815260200182815260200194505050505060405180910390a16002818154811061045a57fe5b9060005260206000200160008154809291906001900391905055506003818154811061048257fe5b9060005260206000200154925050506104aa565b808060010191505061036d565b5060009150505b9392505050565b6000600554905090565b606080600260038180548060200260200160405190810160405280929190818152602001828054801561050d57602002820191906000526020600020905b8154815260200190600101908083116104f9575b505050505091508080548060200260200160405190810160405280929190818152602001828054801561055f57602002820191906000526020600020905b81548152602001906001019080831161054b575b5050505050905091509150909156fe4f6e6c79205363726174636820636f6e74726163742063616e2063616c6c2074686973206d6574686f642ea2646970667358221220f34ebd072bcf0b7eafaa159fa0f678c9106ade297a1aa5418f1bc2610595935064736f6c63430006090033",
  "immutableReferences": {},
  "source": "pragma solidity >=0.6.0;\r\n\r\nimport \"../client/node_modules/@chainlink/contracts/src/v0.6/VRFConsumerBase.sol\";\r\n\r\n//import \"./ScratchPriceConsumer.sol\";\r\n\r\nimport \"./ScratchToken.sol\";\r\n\r\ncontract Scratch is VRFConsumerBase{\r\n\r\n    // Variables for VRFConsumerBase\r\n    bytes32 internal keyHash;\r\n    uint256 internal fee;\r\n\r\n    // Mapping of requestId to address\r\n    mapping(bytes32 => address) private RequestIDtoAddress;\r\n\r\n    mapping(address => uint) public AddressToRound;\r\n\r\n    mapping(uint => PoolTotal) public PoolTotals;\r\n\r\n    // Event to retreive the requestId of the BuyScratchCard function call.\r\n    event RequestID(bytes32 requestId);\r\n\r\n    event RequestFulfilled(uint randomness);\r\n\r\n    event Dividend(address player, uint round, uint poolPercent, uint userPoolPercent, uint dividend);\r\n\r\n    event NewRound(uint totalPool, uint tokenSupply, uint mintAmount, uint roundNumber);\r\n\r\n    // Contract variable to get the LINK price.\r\n    //ScratchPriceConsumer private Client;\r\n\r\n    // Contract variable to handle the current crypto scratch card game round.\r\n    ScratchCardRound private CardRound;\r\n\r\n    // Contract variable to represent the Scratch Token\r\n    ScratchToken private Token;\r\n\r\n    uint public RoundNumber;\r\n\r\n    uint public MintAmount;\r\n\r\n    struct PoolTotal{\r\n        uint liquidity;\r\n        uint tokens;\r\n    } \r\n\r\n\r\n     /**\r\n     * Constructor inherits VRFConsumerBase\r\n     * \r\n     * Network: Rinkeby\r\n     * Chainlink VRF Coordinator address: 0xb3dCcb4Cf7a26f6cf6B120Cf5A73875B7BBc655B\r\n     * LINK token address:                0x01BE23585060835E02B77ef475b0Cc51aA1e0709\r\n     * Key Hash: 0x2ed0feb3e7fd2022120aa84fab1945545a9f2ffc9076fd6156fa96eaff4c1311\r\n     */\r\n     /**\r\n     * Constructor inherits VRFConsumerBase\r\n     *\r\n     * Network: Ropsten\r\n     * Chainlink VRF Coordinator address: 0x2e184F4120eFc6BF4943E3822FA0e5c3829e2fbD\r\n     * LINK token address:                0x20fE562d797A42Dcb3399062AE9546cd06f63280\r\n     * Key Hash: 0x757844cd6652a5805e9adb8203134e10a26ef59f62b864ed6a8c054733a1dcb0\r\n     */\r\n\r\n     /**\r\n     * Constructor inherits VRFConsumerBase\r\n     * \r\n     * Network: Kovan\r\n     * Chainlink VRF Coordinator address: 0xf490AC64087d59381faF8Bf49Da299C073aAC152\r\n     * LINK token address:                0xa36085F69e2889c224210F603D836748e7dC0088\r\n     * Key Hash: 0x6c3699283bda56ad74f6b855546325b68d482e983852a7a82979cc4807b641f4\r\n     */\r\n    constructor(uint initialLink, ScratchToken scratchToken) public payable\r\n        VRFConsumerBase(\r\n            0xf490AC64087d59381faF8Bf49Da299C073aAC152, // VRF Coordinator\r\n            0xa36085F69e2889c224210F603D836748e7dC0088  // LINK Token\r\n        ) \r\n    {\r\n        keyHash = 0x6c3699283bda56ad74f6b855546325b68d482e983852a7a82979cc4807b641f4;\r\n        fee = 0.1 * 10 ** 18; // 0.1 LINK\r\n\r\n        ///Client = new ScratchPriceConsumer();\r\n\r\n        CardRound = new ScratchCardRound(initialLink);\r\n\r\n        RoundNumber = 1;\r\n\r\n        Token = scratchToken;\r\n\r\n        MintAmount = 10 ** 18;\r\n    }\r\n\r\n    /**\r\n     * Function to buy a card.\r\n     */ \r\n    function buyScatchCard(uint userProvidedSeed) public{\r\n        //uint cardPrice = (2000000000000000000 / RequestLinkPrice()) * 100000000;\r\n        // Determine Card price\r\n        uint cardPrice = CardRound.getCardPrice() + fee;\r\n        \r\n        // Test for correct payment\r\n        require(LINK.allowance(msg.sender, address(this)) >= cardPrice , \"Not enough Link can be sent to the contract.\");\r\n\r\n        // Pay for a card in link.\r\n        if(LINK.transferFrom(msg.sender, address(this), cardPrice)){        \r\n            // Set the senders round to the current round. (loss of previous round dividends occur if not claimed before calling this function)\r\n            AddressToRound[msg.sender] = RoundNumber;\r\n\r\n            // Determine scratch card random value and emit RequestID.\r\n            emit RequestID(getScratchCard(userProvidedSeed, msg.sender));\r\n        }\r\n    }\r\n\r\n    /**\r\n     * Requests randomness from a user-provided seed\r\n     */\r\n    function getScratchCard(uint userProvidedSeed, address sender) private  returns(bytes32 requestId){\r\n        require(LINK.balanceOf(address(this)) > fee, \"Not enough LINK - fill contract with faucet\");\r\n        bytes32 requestID = requestRandomness(keyHash, fee, userProvidedSeed);\r\n        RequestIDtoAddress[requestID] = sender;\r\n        return requestID;\r\n    }\r\n\r\n    /*\r\n    function requestRandom(uint userProvidedSeed) public {\r\n        require(LINK.balanceOf(address(this)) > fee, \"Not enough LINK - fill contract with faucet\");\r\n        emit RequestID(requestRandomness(keyHash, fee, userProvidedSeed));\r\n    }*/\r\n\r\n    /**\r\n     * Callback function used by VRF Coordinator\r\n     */\r\n    function fulfillRandomness(bytes32 requestId, uint256 randomness) internal override {\r\n        require(msg.sender == vrfCoordinator, \"Fulillment only permitted by Coordinator\");\r\n        // Distribute possible winnings.\r\n        uint prize = CardRound.claimPrize(RequestIDtoAddress[requestId], requestId, randomness);\r\n        if(prize > 0){\r\n            LINK.transfer(RequestIDtoAddress[requestId], prize);\r\n        }\r\n        Token.mint(RequestIDtoAddress[requestId], MintAmount);\r\n        //delete(RequestIDtoAddress[requestId]);\r\n    }\r\n\r\n    /*\r\n    * Function to start a new round of the game.\r\n    */\r\n    function newRound() public{\r\n        require(CardRound.RoundOverThreshold() ,\"The round is not over yet.\");\r\n        require(Token.balanceOf(msg.sender)  > 0, \"You are not a participant.\");\r\n\r\n        PoolTotals[RoundNumber] = PoolTotal(LINK.balanceOf(address(this)), Token.getTotalSupply());\r\n\r\n        CardRound = new ScratchCardRound(((PoolTotals[RoundNumber].liquidity / 10000) * 2896));\r\n\r\n        MintAmount = (MintAmount / 100) * 80;\r\n\r\n        RoundNumber++;\r\n\r\n        emit NewRound(PoolTotals[RoundNumber-1].liquidity, PoolTotals[RoundNumber-1].tokens, MintAmount, RoundNumber);\r\n    } \r\n\r\n    // function to pay the sender their dividends from previous rounds.\r\n    function receiveDividend() public{\r\n        require(AddressToRound[msg.sender] < RoundNumber && AddressToRound[msg.sender] > 0, \"Invalid dividend participant.\");\r\n        uint i = AddressToRound[msg.sender];\r\n        AddressToRound[msg.sender] = RoundNumber;\r\n        for( i; i < RoundNumber; i++ ){\r\n            uint poolPercent = ((PoolTotals[i].liquidity / 10000) * 6000);\r\n            uint userPoolPercent = Token.balanceOf(msg.sender) / (PoolTotals[i].tokens / (10 ** 18));\r\n            uint dividend = (userPoolPercent / (10 ** 9)) * (poolPercent / (10 ** 9));\r\n            LINK.transfer(msg.sender, dividend);\r\n            emit Dividend(msg.sender, i ,poolPercent, userPoolPercent, dividend);\r\n        }\r\n    }\r\n\r\n    /*\r\n    *\r\n    *   Helper functions.\r\n    */\r\n\r\n    function getCardRound() public view returns(address CardRoundAddress){\r\n        return address(CardRound);\r\n    }\r\n\r\n    function getPlayerRound(address player) public view returns(uint CardRoundNumber){\r\n        return AddressToRound[player];\r\n    }\r\n\r\n    function getRound() public view returns(uint round){\r\n        return RoundNumber;\r\n    }\r\n\r\n    function getToken() public view returns(address TokenAddress){\r\n        return address(Token);\r\n    }\r\n    /*\r\n    function transferToContract(uint value) public returns(bool success){\r\n        return LINK.transferFrom(msg.sender, address(this), value);\r\n    }*/\r\n\r\n    function getContractAllowance() public view returns(uint256 allowance){\r\n        return LINK.allowance(msg.sender, address(this));\r\n    }\r\n\r\n    /*\r\n    function requestLinkPrice() public view returns(uint256 price){\r\n        return uint(Client.getLatestPrice());\r\n    }*/\r\n\r\n    /*\r\n    function transferLinkToClient(uint value) public returns(bool success){\r\n        return LINK.transfer(address(Client), value);\r\n    }*/\r\n\r\n    function getLinkBalance(address owner) public view returns(uint balance)\r\n    {\r\n        return LINK.balanceOf(owner);\r\n    }\r\n}\r\n\r\n// Contract to handle a round of cards.\r\ncontract ScratchCardRound {\r\n\r\n    // Variable to hold the CryptoScratch contract address.\r\n    address private _owner;\r\n\r\n    // Variable to represnt the block that this card can expire.\r\n    uint MaxBlock;\r\n\r\n    // Event to emit a players prize.\r\n    event PrizeClaim(address player, bytes32 requestId, uint number, uint prize); \r\n\r\n    // Array to the number of winning tickets left.\r\n    uint[] internal winNumbers;\r\n\r\n    // Array to hold the pays of the current round.\r\n    uint[] internal winPays;\r\n\r\n    // Array to hold win thresholds of prizes.\r\n    uint[] private winThreshold = [197388, 232338, 244388, 248338, 249858, 249958, 249998, 250000];\r\n\r\n    // Variable to hold the price of a card.\r\n    uint private cardPrice;\r\n\r\n    constructor(uint total) public{\r\n        // Initialize owner\r\n        _owner = msg.sender;\r\n\r\n        MaxBlock = block.number + 576000;\r\n\r\n        winNumbers.push(39600);\r\n        winNumbers.push(12000);\r\n        winNumbers.push(4000);\r\n        winNumbers.push(1500);\r\n        winNumbers.push(120);\r\n        winNumbers.push(40);\r\n        winNumbers.push(2);\r\n\r\n        // Single unit of a win.\r\n        cardPrice = total /  72400;\r\n\r\n        winPays.push(cardPrice /2);\r\n        winPays.push(cardPrice);\r\n        winPays.push(2 * cardPrice);\r\n        winPays.push(10 * cardPrice);\r\n        winPays.push(30 * cardPrice);\r\n        winPays.push(100 * cardPrice);\r\n        winPays.push(5000 * cardPrice);\r\n\r\n    }\r\n\r\n    function claimPrize(address player, bytes32 requestId, uint randomNumber) public returns(uint prize){\r\n        require(msg.sender == _owner, \"Only Scratch contract can call this method.\");\r\n        // Initialize prizeNumber to be a number between 0 and 249,999.\r\n        uint prizeNumber = randomNumber % 250000;\r\n\r\n        // Losing condition\r\n        if(prizeNumber < winThreshold[0]){\r\n            emit PrizeClaim(player, requestId, prizeNumber, 0); // ClaimPrize event.\r\n            return 0;\r\n        }\r\n        // Loop for wins.\r\n        for(uint i = 0; i < 7; i++){\r\n            if(prizeNumber >= winThreshold[i] && prizeNumber < winThreshold[i+1]){\r\n                emit PrizeClaim(player, requestId, prizeNumber, winPays[i]); // ClaimPrize event.\r\n                winNumbers[i]--;\r\n                return winPays[i];\r\n            }\r\n        }\r\n        return 0;\r\n    }\r\n\r\n    // Returns the price of a card.\r\n    function getCardPrice() public view returns(uint price){\r\n        return cardPrice;\r\n    }\r\n\r\n    // Returns the amount of unclaimed prizes and their pays.\r\n    function unclaimedPrizes() public view returns (uint[] memory num, uint[] memory pays){\r\n        return (winNumbers, winPays);\r\n    }\r\n\r\n    // Returns whether the round should be over.\r\n    function RoundOverThreshold() public view returns (bool success){\r\n        if(block.number >= MaxBlock){\r\n            return true;\r\n        }\r\n        for(uint i = 6; i > 1; i--){\r\n            if(winNumbers[i] > 0){\r\n                return false;\r\n            }\r\n        }\r\n        return true;\r\n    }\r\n\r\n    // SOLID OPTION 1.\r\n    // ~ 250,000 plays to clear round ~ $500,000 given 2$ ticket.\r\n    // ~ 1/3.45 prize distribution of $144,800  1: 4.365 prob per card of win.\r\n    //\r\n    //         tickets  base      thresh     base $    units\r\n    // .5x   - 39600  -      1   197388    - $39,600   19800\r\n    // 1x    - 12000  -      2   232338    - $24,000   12000\r\n    // 2x    - 4000   -      4 - 244388    - $16,000   8000\r\n    // 10x   - 1500   -     20 - 248338    - $30,000   15000\r\n    // 30x   - 120    -     60 - 249858    -  $7,200   3600\r\n    // 100x  - 40     -    200 - 249958    -  $8,000   4000 \r\n    // 5000x - 2      - 10,000 - 249998    - $20,000   10000\r\n\r\n    // SOLID OPTION 2\r\n    // ~ 250,000 plays to clear round ~ $500,000 given 2$ ticket.\r\n    // ~ 1/4 prize distribution of $125,000  1:8.462 prob per card of win.\r\n    //\r\n    //         tickets  base      thresh     remain    base $\r\n    // 1x    - 24500\r\n    // 2x    - 3500  -      4                         - $14,000  \r\n    // 10x   - 1400  -     20                         - $28,000\r\n    // 30x   - 100   -     60 - 249858                -  $6,000\r\n    // 100x  - 40    -    200 - 249958                -  $8,000        \r\n    // 5000x - 2     - 10,000 - 249998                - $20,000\r\n    \r\n}\r\n\r\n\r\n",
  "sourcePath": "/mnt/c/Users/PC/Documents/Scratch/contracts/Scratch.sol",
  "compiler": {
    "name": "solc",
    "version": "0.6.9+commit.3e3065ac.Emscripten.clang"
  },
  "schemaVersion": "3.2.5",
  "updatedAt": "2020-09-27T17:56:18.941Z",
  "devdoc": {
    "methods": {
      "requestRandomness(bytes32,uint256,uint256)": {
        "details": "See \"SECURITY CONSIDERATIONS\" above for more information on _seed.The fulfillRandomness method receives the output, once it's providedby the Oracle, and verified by the vrfCoordinator.The _keyHash must already be registered with the VRFCoordinator, andthe _fee must exceed the fee specified during registration of the_keyHash.The returned requestId can be used to distinguish responses to *concurrent requests. It is passed as the first argument tofulfillRandomness.",
        "params": {
          "_fee": "The amount of LINK to send with the request",
          "_keyHash": "ID of public key against which randomness is generated",
          "_seed": "seed mixed into the input of the VRF"
        },
        "returns": {
          "requestId": "unique ID for this request"
        }
      }
    }
  },
  "userdoc": {
    "methods": {
      "buyScatchCard(uint256)": {
        "notice": "Function to buy a card."
      },
      "constructor": "Constructor inherits VRFConsumerBase  Network: Kovan Chainlink VRF Coordinator address: 0xf490AC64087d59381faF8Bf49Da299C073aAC152 LINK token address:                0xa36085F69e2889c224210F603D836748e7dC0088 Key Hash: 0x6c3699283bda56ad74f6b855546325b68d482e983852a7a82979cc4807b641f4",
      "requestRandomness(bytes32,uint256,uint256)": {
        "notice": "requestRandomness initiates a request for VRF output given _seed"
      }
    }
  }
}